:104000000000032001640000ED630000ED63000088
:10401000ED630000ED630000ED63000000000000B0
:10402000000000000000000000000000ED63000040
:10403000ED63000000000000ED63000081640000FB
:10404000ED630000ED630000ED630000ED63000030
:10405000ED630000ED630000ED630000ED63000020
:10406000ED630000ED630000ED630000ED63000010
:10407000ED630000ED630000ED630000ED63000000
:10408000ED630000ED630000ED630000ED630000F0
:10409000ED630000ED630000ED630000ED630000E0
:1040A000ED630000ED630000ED630000ED630000D0
:1040B000ED630000ED630000ED630000894900003E
:1040C00089490000894900008949000089490000A8
:1040D000ED630000ED630000ED630000ED630000A0
:1040E000ED630000ED630000ED630000ED63000090
:1040F00000000000ED630000ED630000ED630000D0
:10410000ED630000ED630000ED630000ED6300006F
:10411000ED630000ED630000ED630000ED6300005F
:10412000ED630000ED63000059630000656300006B
:10413000696300006D630000ED630000ED63000043
:10414000ED630000ED630000ED630000ED6300002F
:10415000ED630000ED630000ED630000ED6300001F
:10416000ED630000ED630000ED630000ED6300000F
:10417000ED630000ED63000000000000000000009F
:10418000F163000093640000976400009B640000EA
:1041900000000000ED630000ED630000ED6300002F
:1041A000ED630000ED630000ED630000ED630000CF
:1041B000ED630000ED630000ED630000ED630000BF
:1041C000ED630000ED630000ED630000ED630000AF
:1041D000ED630000ED630000ED630000ED6300009F
:1041E000ED630000ED630000ED630000ED6300008F
:1041F000ED63000000000000ED630000ED630000CF
:10420000ED630000ED630000ED630000ED6300006E
:10421000ED630000ED630000ED630000ED6300005E
:10422000ED630000ED630000ED630000ED6300004E
:10423000ED630000ED630000ED630000ED6300003E
:10424000ED630000ED630000ED630000ED6300002E
:10425000ED630000ED630000ED630000ED6300001E
:10426000ED63000010B5054C237833B9044B13B14E
:104270000448AFF300800123237010BD30050020F7
:104280000000000038A7000008B5034B1BB103492C
:104290000348AFF3008008BD000000003405002093
:1042A00038A7000013B5D2B204460092CBB205483D
:1042B000E2B2002101F063FB024802B0BDE8104009
:1042C00001F058BABC0B00202DE9F047184FDFF879
:1042D00064803E464546002456F8040B012102F056
:1042E0002BFA013455F8040B002102F025FA052CB5
:1042F000F2D102240025C5F10105C146BA460026C7
:104300005AF8040B294602F05BFA59F8040B02F044
:1043100081FA854209D10136052EF1D1012C02D155
:104320002046BDE8F0870124E5E70020F9E700BF5B
:10433000089800001C98000010B50A2000F09AFDB3
:1043400000F09EFD0B4904460B4802F03BFB012C9C
:1043500008D0022C0CD01CB90849074802F032FBE7
:10436000002004E00649044802F02CFB204610BD62
:104370000449F2E7B097000044100020B89700000D
:10438000C0970000C397000038B5164D164C2B6837
:1043900013F0010F04D102F089F8012320602B6093
:1043A00002F084F82368C01AC72819D902F07EF8F1
:1043B0000E4B20601A68C2F101021A600C4B19689A
:1043C000FF2902D10022104604E03AB1094B1A68D5
:1043D000094B1868BDE83840FFF764BF1146F2E7A3
:1043E00038BD00BF4C050020600500205C050020A2
:1043F000F80B0020F40B0020FC0B0020F8B51D4842
:104400001D4D1E4C1E4E01F0EDF82021194801F003
:104410001FFA184801F0AEF901210D2002F08CF9C5
:1044200002210B2002F088F901210D2002F0C8F9C9
:10443000FF2700232B6027603360FFF745FF08B993
:1044400037602060FFF778FF10B9FF232B602060F2
:104450000C4A0D480023032101F090FE28B9BDE865
:10446000F8400A490A4802F0ADBA0A49084802F081
:10447000A9FAFEE7BC0B0020FC0B0020F80B002083
:10448000F40B002020A1070068050020C79700005A
:1044900044100020E597000030B5124D124C2B68F7
:1044A00013F0010F85B004D102F000F80123206061
:1044B0002B6001F0FBFF2368C01AC7280FD901F059
:1044C000F5FF0A4A20605168106802AB03C300225E
:1044D00002AB009306480823114601F029FF05B0FE
:1044E00030BD00BF5005002064050020FF9700008C
:1044F0006805002008B5FFF747FF0B2002F08AF996
:10450000C0F101010D2002F05BF9BDE80840FFF7A2
:10451000C3BF000013B5002300931A4619460B4889
:104520000B4C02F011FA0B4B4FF4C072C3F8482643
:10453000012152230C22204600F09CFF064A074925
:10454000204602B0BDE8104004F016B85405002023
:10455000BC0B0020680500200000002095540000DE
:104560000278034B53F82230002283F84920704729
:10457000540C0020F8B5044610300D4617461E4670
:1045800000F0C2F904F1240000F0BEF90020C4E9F3
:104590000E00C4E9100084F8480084F849006072F5
:1045A0002DB90A4B0A4A0B48222103F0EBFF9DF874
:1045B000183063719DF81C30E3719DF82030256040
:1045C0002771A67123722046F8BD00BF3098000005
:1045D00041980000959800001FB5044604AB0068A0
:1045E00003E9060002F00CFB9DF80D30227AE17918
:1045F00020680093002302F035FC2068029A9DF8A1
:104600000C1002F01BFB206804B0BDE8104002F063
:10461000EDBA000017B4837A6C4684E8060043B113
:104620009A070DD5EFF31083B3FA83F35B09C372D6
:1046300072B694E8060003B05DF8044BFFF7CCBFF8
:10464000DB0742BF014B8289DA60F2E700280040B5
:10465000837A53B19A0703D5C37A33B162B67047F0
:10466000DB0742BF014B82891A6170470028004076
:10467000006802F0D0BA70B505460C468E18B442F8
:1046800006D021782846FFF7F3FF04F8010BF6E780
:1046900070BD000008B5006802F0E4FA0028A3BF6E
:1046A0000C235843024B0020A8BF185808BD00BF78
:1046B000F898000008B5006802F0D4FA0028A3BFFB
:1046C000044B0C2202FB00304FF0FF30A8BF4068C3
:1046D00008BD00BFF898000008B5006802F0C2FAF3
:1046E0000028A3BF044B0C2202FB00304FF0FF3028
:1046F000A8BF806808BD00BFF89800002DE9F04110
:1047000000F1100686B00446304600F053F9002848
:104710007DD104F12407384600F04CF90546002805
:104720006FD12046FFF7D8FFC1B2304600F0A2FAA1
:104730000221304600F0B6FA01223649DFF8D8806F
:10474000304600F07DFA237C204648F82340FFF7EE
:10475000B1FFC1B2384600F08DFA0221384600F0B0
:10476000A1FA94F82430204648F82340FFF792FF3E
:104770004FF0010801462B462A46CDE90355CDE905
:1047800001580095304600F0BFFAA0632046FFF7BD
:1047900081FF2B4602462946CDE90355CDE9018527
:1047A0000095384600F0B0FAE063B02003F054FF03
:1047B000206400B3303084F848806064226CA36BBE
:1047C0002A4403F1100153F8040B42F8040B8B4206
:1047D000F9D11035302DF1D10023616CE26B194411
:1047E00002F1100052F8045B41F8045B8242F9D1F7
:1047F0001033802BF1D194F8483043B9384600F09B
:104800009FF9304606B0BDE8F04100F099B906B016
:10481000BDE8F08161450000540C0020437A70B57A
:1048200004461BB9012242724381C36094F84830A8
:1048300013B92046FFF762FF0F4E2079182505FBBC
:10484000006393F9081001F0FDFFA07905FB0063F8
:1048500093F9081001F0F6FF607905FB006595F902
:10486000081001F0EFFF054B204693E80600BDE875
:104870007040FFF7B1BE00BFB0A100004C0C00209B
:104880001FB5094A094B1360002393800322CDE929
:104890000132192300930649064818231722FFF70F
:1048A00069FE05B05DF804FB4C0C002090D00300BD
:1048B00000100020000C0020074B196841B9EFF3ED
:1048C0001080064A18B972B6BFF35F8F01211170CC
:1048D0001A6801321A607047DC0C0020D80C0020E6
:1048E000074B1A6852B11A68013A1A601B682BB953
:1048F000044B1B7813B1BFF35F8F62B6704700BFE4
:10490000DC0C0020D80C0020FF2202704FF4407114
:1049100000224270428081808260C26002617047E2
:10492000184A02EB011110B491F84E10CCB211F0FC
:1049300001010CD00178836802EB0112012182F899
:104940004E1004224270D3B15DF8044B184714F0A6
:10495000020F08D00478C36802EB0412022482F824
:104960004E404170EFE7610709D50178036902EB1A
:104970000112042182F84E1007224270E3E75DF82D
:10498000044B704700A0004108B5FFF795FF074BA7
:10499000198C074B01F01F0153F8210008B1FFF7F4
:1049A000BFFFBDE80840FFF79BBF00BF00A000416C
:1049B000E00C00202DE9FF4103781F2B04464FF047
:1049C000000040F29E80504E2070012223781F2B61
:1049D00007D8316802FA03F008420AD00133237085
:1049E000F4E701208DE003F00F03043B63441876E5
:1049F00044E0FFF761FF3768002F43D1434A444D3D
:104A00001369444843F4007313612B8867F341032F
:104A10002B802B8800F5007843F001032B8039466A
:104A200068634FF40072C5F8388003F033FE3946EE
:104A30004FF40072404603F02DFE374ADFF8E4C021
:104A400010685168354F128940F602732B8001AB14
:104A500003C301AD1A80E02005224FF0010E35F9A5
:104A6000023B002BBFDB4FEA531803F01F013B440E
:104A70000EFA01F147F8281083F80003013A12F00A
:104A8000FF02ECD122783068012101FA02F30343DE
:104A90003360234B43F8224004321D4B12019858D7
:104AA0006FF341009850227804321201985808435D
:104AB000985020781A69814022EA01011961227810
:104AC000043203EB021251796FF301015171227824
:104AD000207904321201995860F30E2199502278FE
:104AE000607904321201995860F315519950227877
:104AF0000432120199586FF31B619950FFF7F0FED1
:104B0000002004B0BDE8F081D40C00200008004073
:104B100000A00041300100204099000000E100E0C9
:104B2000E00C002000ED00E00278044B1201134479
:104B30005A7961F301025A71704700BF40A00041E9
:104B400010B50446FFF7B8FE6378062B58B228D09C
:104B500023781F2B28D801229A40144B19680A4247
:104B600022D0196821EA02021A601B6893B9104A20
:104B70004FF00041C2F88010BFF34F8FBFF36F8F2B
:104B80000C4A118863F3410111800B4A116963F3E8
:104B9000492111612178094A002042F82100FF22B1
:104BA0002270FFF79DFE10BD0220FAE7D40C002012
:104BB00000E100E000A0004100080040E00C0020FF
:104BC00010B50446FFF778FE6378062B58B22CD058
:104BD00022781F2A2CD8A37863B3174B03EB021358
:104BE00011015B889BB22BB3A368E268003B18BF3E
:104BF00001230AB143F0020322690AB143F004031E
:104C0000062262700D4A1144002081F84D3021784F
:104C100002EB011183F0070381F84C302378043351
:104C20001B01D15841F00201D150FFF759FE10BDD0
:104C30000220FAE70320F8E73001002000A000413D
:104C4000023240F8221070470378202B10B504463A
:104C50000DD8FFF731FE2378054A04331B010021EC
:104C6000D15008236370BDE81040FFF739BE10BD76
:104C700000A0004138B5037801711F2B04460D4692
:104C80000DD8FFF719FE2378054A04331B01D158CC
:104C900065F30E21D150BDE83840FFF721BE38BD85
:104CA00000A0004138B5037841711F2B04460D4622
:104CB0000DD8FFF701FE2378054A04331B01D158B4
:104CC00065F31551D150BDE83840FFF709BE38BD36
:104CD00000A000410178202907D883782BB1034A2E
:104CE000012310698B4003431361704700A000410A
:104CF0000278044B03EB0213B3F8000200F001004A
:104D0000704700BF300100202DE9F74F05460078BD
:104D10009DF830B09DF838900F9E9DF840701F2888
:104D200090468A469DF834201C4603D9002003B0E3
:104D3000BDE8F08F6B78062BF8D0AB78002B5FD0F6
:104D400010210846019203F07FFC0028EED02B785A
:104D50002E49019A01EB03110B46D3F80CC0BCF1AC
:104D6000000F05D0D3F80CC0614501D0DB68F4E733
:104D7000D86001239B45AB7046D0BBF1020F08BF42
:104D80000423018841F00101018001886FF3420191
:104D9000018001886FF3C401018001886BF3092150
:104DA0000180018862F38A210180018869F3CB21A7
:104DB0000180018867F30C310180018866F34F316F
:104DC0000180A1B24180C0F804A032B1426804FB66
:104DD00003F107B1B14011444160C0F80880B9F156
:104DE000000F05D05C43836807B9B4401C4484605D
:104DF000EB781BB12A78054B03EB0213C36096E7EF
:104E0000024B03EB0010B4E70223BAE730010020A5
:104E10008378C1707BB10278074B03EB02131A460B
:104E2000D06820B1D068834201D0D268F8E7002969
:104E300008BF0023D36070473001002007B500236E
:104E400000931A461946034801F07EFD03B05DF851
:104E500004FB00BF600D002007B5002300931A4635
:104E60001946034801F070FD03B05DF804FB00BF74
:104E7000680D0020014B1870704700BF040000202F
:104E800008B500F09FFA012802D0022818BF0020C0
:104E900008BD000007B5002300931A4619460448D0
:104EA00001F052FD034803B05DF804EB01F044BD8E
:104EB000700D0020780D002007B5002300931A46DE
:104EC0001946034801F040FD03B05DF804FB00BF44
:104ED000800D002007B5002300931A4619460348A9
:104EE00001F032FD03B05DF804FB00BF880D002027
:104EF00007B5002300931A461946034801F024FD24
:104F000003B05DF804FB00BF900D002007B5094B0E
:104F10008DF807201B7801EB032101EB0020012213
:104F20000DF1070180B200F025F8C0B203B05DF8C2
:104F300004FB00BFA80D002007B5002300931A460C
:104F40001946034801F000FD03B05DF804FB00BF03
:104F5000980D0020024B0021187801F031BC00BFF1
:104F600004000020024B0121187801F029BC00BF89
:104F7000040000202DE9F3414B4B1B78332B0446F2
:104F80000D4616461FD100EB0208484F4D1E1FFA72
:104F900088F8A04572D0FFF7DDFFF0213846FFF713
:104FA00067FB210A3846FFF763FBE1B23846FFF79B
:104FB0005FFB013415F8011F3846A4B2FFF758FB18
:104FC000FFF7D0FFE5E7342BC7B21AD1FFF7C2FFD6
:104FD000330A64BA63F07F033448ADF8004004221A
:104FE00069468DF802308DF80360FFF744FB2F4CC3
:104FF000AF19AF4240D015F8011B2046FFF738FB30
:10500000F7E7FFF7A7FFFF2C08D800238DF8003043
:105010008DF8017004238DF802300DE0230417D4BD
:10502000E41024F01F04002344F00C048DF8003039
:105030008DF801708DF80240052E23D80023B3426D
:1050400015DA02AA1A44E95C02F8051C0133F6E7F6
:1050500044F38713B4F5404F23F01F0364BAADF84F
:10506000004034BF43F0140343F01C03D3E70F4860
:10507000F21C6946FFF7FFFAFFF774FF304602B0F3
:10508000BDE8F08169460948084F0322FFF7F3FAAB
:10509000711E6C1E15FA81F514F8011F3846FFF7D2
:1050A000E7FAAC42F8D1E7E7A90D0020000C002098
:1050B00007B501228DF807100DF10701FFF75AFF20
:1050C000C0B203B05DF804FB08B501460020FFF74D
:1050D000EFFF08BD2DE9F3413B4B1B78332B044612
:1050E0000E46154620D100EB0208384F4E1E1FFA1F
:1050F00088F8A04538D0FFF72DFF0F213846FFF77D
:10510000B7FA210A3846FFF7B3FAE1B23846FFF79B
:10511000AFFA00213846FFF7ABFA013406F8010F69
:10512000A4B2FFF71FFFE4E7342BC7B220D1FFF78B
:1051300011FF64BAC5F306230422ADF804408DF8CC
:1051400006308DF807500DEB02012048FFF793FA67
:105150002A460021304603F09DFA1C482A46314673
:10516000FFF789FAFFF7FEFE284602B0BDE8F0819E
:10517000FFF7F0FEFF2C07D800238DF804308DF8E0
:1051800005708DF806300DE023040ED4E41024F0F1
:105190001F04002344F008048DF804308DF80570D6
:1051A0008DF80640032201A9CFE744F38713B4F535
:1051B000404F23F01F0364BAADF8044034BF43F0FE
:1051C000100343F01803DCE7A90D0020000C0020B9
:1051D00007B501220DF10701FFF77CFF9DF80700DD
:1051E00003B05DF804FB08B50020FFF7F1FF08BD30
:1051F00010B58020FFF768FF1424FFF7F4FF40B1DB
:10520000013C0120A4B201F083F9002CF5D1204625
:1052100010BD0120FCE7000008B50F4B33221A70C7
:10522000FFF7E6FF08B9002008BD1020FFF74CFF8C
:10523000FFF7D9FF1028F6D11220FFF745FFFFF73F
:10524000D2FF1228EFD10020FFF73EFFFFF7CBFF80
:10525000B0FA80F04009E7E7A90D002008B5124B2D
:1052600034221A70FFF7C4FF08B9002008BD0820D7
:10527000FFF72AFFFFF7B7FF0828F6D11020FFF746
:1052800023FFFFF7B0FF1028EFD10020FFF71CFF2E
:10529000FFF7A9FF0028E8D11F20FFF799FFC31EE1
:1052A00058425841E2E700BFA90D002008B5124B53
:1052B00037221A70FFF79CFF08B9002008BD0820AC
:1052C000FFF702FFFFF78FFF0828F6D11020FFF746
:1052D000FBFEFFF788FF1028EFD10020FFF7F4FE58
:1052E000FFF781FF0028E8D13920FFF771FF031F86
:1052F00058425841E2E700BFA90D002073B52B4E7C
:105300003478002C50D14FF40C7001F001F928488A
:10531000FFF784FA274B0121187801F00DFAFFF707
:1053200021FE254B0093ADF8044002AB13E90600C3
:105330001F48FFF76FF9FFF791FFB0B11F4B4022F5
:105340001A70E5B202221E212846FFF7DFFD013464
:1053500002221F212846FFF7D9FD082CF1D114485D
:105360000124FFF775F934701BE0FFF79FFF18B1B8
:10537000124B10221A70F2E7FFF74EFF044658B1A5
:105380000E4B042255211B201A70FFF791FE552168
:105390001A20FFF78DFEE2E7094B18700448FFF76B
:1053A00057F9204602B070BD0124FAE7AA0D00208B
:1053B000000C002004000020809FD500A80D0020D4
:1053C000A90D002013B5FFF799FF38B11B4B1B78CF
:1053D000342B4FF0000003D0372B18D002B010BD93
:1053E000174B0093ADF8040002AB13E90600154813
:1053F000FFF710F93520FFF7EBFE04461148FFF7E1
:1054000027F914F0200F0CBF02200120E6E70C4B17
:105410000093ADF8040002AB13E906000948FFF75A
:10542000F9F82E20FFF7D4FE04460648FFF710F9DE
:1054300004F00100C0F10200C0B2CFE7A90D0020C6
:10544000809FD500000C002007B5002300931A466A
:105450001946034801F078FA03B05DF804FB00BF79
:10546000A00D002008B501F027F8014B186008BD19
:10547000AC0D002010B5044600F06BFA04F11800E2
:10548000FFF742FA0023C4E90B334FF48073A3867D
:10549000204610BD10B504461830FFF7D5FBE06A72
:1054A00008B1FFF7D5F8206B08B103F0DDF820460E
:1054B00000F0D1F9204610BD2DE9F04788B01F4615
:1054C0009DF84050B0F906309D420446884691460A
:1054D00003D0002008B0BDE8F08700F0CAF9237CB3
:1054E000E67C9E420CBF032604266388734318267D
:1054F0005E43F6085A36304603F0AEF820630028C3
:10550000E7D00023E362B4F90630192B53D1334BB3
:10551000E362E06A002846D0FFF780F904F118083A
:105520009DF94810284601F08DF939464046FFF7AD
:10553000A1FB02214046FFF7B5FB4046FFF73AFAD0
:10554000074650BB0125CDE90300CDE900050290D7
:10555000216B334609F128024046FFF7D5FBC8B15D
:1055600029464046FFF754FC32463946206B03F08B
:1055700091F81B4B0693ADF81C7008ABE06A13E979
:105580000600FFF747F84046FFF71AFB88B1E06ACC
:10559000FFF75EF84046FFF7D3FA104BE26A9A42F3
:1055A00004BF0023E362206B03F05EF80020206359
:1055B00090E728468EE74C2002F06CFE0123029310
:1055C0009DF844308246CDE900532A462B46414699
:1055D000FEF7D0FFC4F82CA09BE700BF000C002012
:1055E000009F24002DE9F041044686B000F041F907
:1055F000237CE57C9D420CBF0325042563885D4325
:105600006D011835284603F027F80346206300286B
:1056100000F09980B4F90600DFF85481012104F10B
:10562000180601F089F8B4F90600002101F0C8F865
:1056300016213046FFF71EFB02213046FFF732FBF2
:10564000B4F90630464818215943431841565B685F
:105650000127C3F3C40202EBC11107FA03F3D2001E
:10566000134184F8363030468844FFF7A3F903210C
:105670003046FFF759FA0023CDE90333CDE9017332
:10568000216B009342462B463046FFF73DFB3A46DE
:1056900034493046FFF7D4FA334B40F606125A63CA
:1056A0005A681007C2F3C001FAD4D3F8E42061F3BA
:1056B0008612C3F8E4202C4B1946D3F8E420520696
:1056C000FBD40022452060F30702C3F8E420D1F8A0
:1056D000E430C3F380155B06F9D5244B1A686FF3E9
:1056E00041021A609A689707C2F34001FAD41A6817
:1056F00061F30A221A60DA6B022161F30202DA63B3
:105700001A4B1A4699684E06C1F38010FAD45864B1
:105710009368D905FCD40E231364144B18469A6879
:105720001206FCD41A6842F002021A608368C3F3BE
:1057300040019B07FAD4206B182202F0ABFF2846E9
:1057400006B0BDE8F081CDE9010084F83600009094
:10575000024601462046FFF7AFFE0546EFE700BFD1
:10576000B0A1000065540000001C00400060014131
:105770001C8000412DE9F84390F83620036BC66881
:105780000446B2B98188304D31448E4203F103039F
:1057900058D016F8010BA28E4243121255F822205F
:1057A00003F8012C100C03F8030C100A03F8020C88
:1057B000EBE7C77C027C03F11805438897420CBFD6
:1057C000032704275F4300F118084046FFF790FACB
:1057D0000028FAD13744BE4224D016F8013BA28EED
:1057E0005A43C2F307222B1D05F12409802112EA36
:1057F000010C94F836E003F804EC1DBF03F8030C29
:1058000003F8020C94F836C003F803EC08BF03F861
:1058100002CC03F801CC1D4604334B454FEA51013D
:10582000E5D1D8E74046FFF7CBF9084C00F044FE3D
:105830002368C01AB0F5877FF8D94046BDE8F84321
:10584000FFF748BABDE8F8834C990000AC0D002082
:1058500001318186704710B50446C06802F004FF2C
:10586000B4F90600002802DB002100F065FF2046A5
:1058700010BD10B50446B0F90600002807DB012171
:1058800000F05AFFB4F90600002100F099FF01234F
:10589000637010BD37B50446C0680D4602F0E4FEE3
:1058A000E27C237C9A420CBF0322042212FB05F205
:1058B00092B2A2801046019202F0CEFEE06030B1BA
:1058C000019A002102F0E6FE658003B030BDA080A1
:1058D0006080FAE7F0B4FF29C1F38107C1F38112B8
:1058E000C1F30115477401F003078CBF00210121AA
:1058F0000170C168C47C067CC2740574877461B190
:10590000A41B6142A2EB050561416A426A419142D2
:1059100003D0F0BC4188FFF7BDBFF0BC704738B57D
:10592000437804460D4633B1B0F90600002802DB87
:10593000002100F001FF6378E5804BB1284601218A
:1059400000F0FAFE28460021BDE8384000F038BFDC
:1059500038BDF8B5002504460F4645701946057256
:10596000C56045611646FFF7B5FF39462046FFF78B
:1059700091FF20463146FFF7D2FF2046F8BDF0B533
:1059800044889DF814708C421DD9047A44B112FBEE
:1059900004F214FB03F314FB07F4120A1B0A270A90
:1059A000C57C067CC468AE421DBF04EB81010026A5
:1059B0004E5501EB4101057C08BF09194A55427C4F
:1059C0008B54837CCF54F0BD0B7B802BF0B567D814
:1059D0004B7B402B64D88B7B402B61D8CB7B402BFF
:1059E0005ED80B7C402B5BD84B7C202B58D88B7C13
:1059F000202B55D8CC7C202C52D82344202B4FDC94
:105A00000B7D402B4CD84B7D402B49D88B7D402BB8
:105A100046D8CB7D402B43D88B6883620C7B1460C7
:105A200003EB8405C5624D7B022616FB054503EB9F
:105A30008504156004630C7D8F7BF440344407FBC0
:105A4000045403EB8405146045634D7DCF7BF54022
:105A5000354407FB054503EB8504156084638C7DA5
:105A60000F7CF440344407FB045403EB84051460BA
:105A7000C5634D7C16FB054603EB86031660036485
:105A8000CC7D8B7CA408023403FB04641460CE7DBF
:105A9000CB7CB608023603FB064414600120F0BD3F
:105AA0000020FCE7082801D8087008E010F0030285
:105AB0000FD11B284FEA900303D806330B70012047
:105AC000704713F0030304D14F2802D800090B30AC
:105AD000EAE700207047000030B50D4693B0044659
:105AE00028B90B4B0B4ABE210B4802F04BFD19B9EC
:105AF0000A4B084ABF21F7E74422002101A802F01F
:105B0000C9FD2A46214601A8FFF75EFF13B030BD4C
:105B10004C9D0000509D00008B9D0000F89D0000F2
:105B20004268916908B521F00203C90706D4054B04
:105B3000054A06484FF4C27102F024FD43F0020307
:105B4000936108BDFD9D0000299E00008B9D000013
:105B500042689369012923F4407304D0022905D0D7
:105B600001B99361704743F48073FAE743F44073DB
:105B7000F7E743689B6913F4807004D013F4007F47
:105B800014BF0220012070474268D2F8C03043F0B1
:105B90008043C2F8C0307047416800238A69D0074B
:105BA00007D513B922F001028A610133B3F5806F82
:105BB000F4D17047416801228B6913F0010006D1CE
:105BC000002AF9D043F001038B610246F4E77047E5
:105BD000F7B50C46064628B90B4B0C4AC8210C48B1
:105BE00002F0D0FC19B90B4B084AC921F7E74D6800
:105BF0001DB9094B054ACA21F1E78B6883B9074BE8
:105C0000024ACB21EBE700BF4A9E00004E9E0000F7
:105C10008B9D00004C9D0000859E00008F9E000023
:105C20004422002102F036FD01AA21463046FFF74A
:105C3000CBFE002800F08281A446BCE80F00374666
:105C40000FC7BCE80F000FC79CE80300012387E8DB
:105C50000300AB613046FFF7ADFF3046FFF760FF52
:105C60002B23C5F880306FF06043C5F890300023D7
:105C70006B65C5F8E030AB65EB656FF440132B65E1
:105C8000A369002B00F05C81A38B033B9BB2FE2B2E
:105C900000F25681A37F013B1A0600F1518194F86E
:105CA0002630013B1B0600F14B81AD49AD4800F0A9
:105CB0007AFEAD49AB480A2200F0C5FEA38BA27F55
:105CC000AA49A8481A44A369534303F1B76202F5ED
:105CD00058425B00B2FBF3F3019300F064FE0A222A
:105CE0000199A04800F0AFFE019B5A1EB2F5007F5B
:105CF00080F02881A38B94F826109A48023B1B025F
:105D00009BB243EA0243A27F013A013902F07F02CB
:105D100042EA41621A43EA61A77F94F82620944937
:105D2000013F013A07F07F0747EA42671F4300F04F
:105D30003AFE10228B48394600F085FE236AA2699C
:105D40009342C0F0018194F82420D11E1E2900F254
:105D5000FB8094F82500411E0F2900F2F58094F88D
:105D600027100139072900F2EF80024453437F498D
:105D70007C4803F1B76202F558425B00B2FBF3F3D3
:105D8000019300F010FE0A220199764800F05BFEB4
:105D9000019B5A1E1F2A00F2D98094F8243094F8EF
:105DA00027107048023B01391B0201F00F0141EA44
:105DB000024103F4F8530B4394F82510013909010B
:105DC000C9B20B43EB6094F8247094F8273069490A
:105DD000023F013B3F0203F00F0343EA024307F493
:105DE000F8571F4394F82530013B1B01DBB21F43DA
:105DF00000F0D9FD102239465A4800F024FE227BDB
:105E0000338D43EA0243C5F88430637BB28D1B04B3
:105E100003F4FE031343C5F88830A37B328E1B04C2
:105E200003F4FE031343C5F8A030E37BB28E1B04DA
:105E300003F4FE031343C5F8B030338FC5F8AC301C
:105E4000637CB28F1B0403F47C131343C5F8F0305A
:105E5000A37CB6F840201B0403F47C131343E27CBC
:105E6000120602F07C521343C5F8C030207D0DF1BC
:105E70000301FFF717FE00286AD09DF80330607D0C
:105E8000072B8CBF03F0070300230DF103010193DF
:105E9000FFF708FE00285DD09DF80330019AA07D31
:105EA000072B86BF1B0103F07003002313430DF182
:105EB00003010193FFF7F6FD00284DD09DF8033054
:105EC000019A072B86BF1B0203F4E06300231343F0
:105ED000C5F8BC30E07D01930DF10301FFF7E2FD51
:105EE00000283BD09DF80330072B8CBF03F007033D
:105EF0000023C5F8C830227BB36A002103EB82027D
:105F0000934202D243F8041BFAE7F36A627B002152
:105F100003EBC202934202D243F8081BFAE74FF0A8
:105F2000FF33C5F89830C5F89C30AB6923F4407353
:105F300043F48053AB61002003B0F0BD0120FBE7C8
:105F40000220F9E70320F7E70420F5E70520F3E74F
:105F50000620F1E70720EFE70820EDE70920EBE74F
:105F60009C9E000044100020006CDC02A49E0000F7
:105F7000B09E0000B89E00004268136943F0100311
:105F8000136170474268136923F01003136170476F
:105F90002DE9F74F9946C37D934206468B46174637
:105FA00006D22C4B2C4A2D4840F2232102F0EAFA6B
:105FB000D0F80480FFF7DDFD0DF1070182461046A1
:105FC000FFF770FD08B98DF80700F37C002B3FD078
:105FD000D8F8C4309B023BD4F47DD8F8C450336C5D
:105FE0001BF0804F4FEA940408BF1D49C5F30445D8
:105FF00004F1020405FB04F41ABF2BF0604B4BF0D4
:10600000804101EA8B4143F824109DF80710BAF152
:10601000010F4FEA014103EB840001F4702111D11B
:1060200041F4001141603A464946083002F024FB31
:106030000123AB40C8F8E030C8F8D030284603B0A0
:10604000BDE8F08FBAF1020F08BF41F44011E9E753
:10605000FF25F3E7289F0000449F00008B9D000070
:106060000000FC1F38B50129049C06D92C4B2D4A91
:106070004FF41C712C4802F085FA5D0007D5457B72
:1060800095420DD8294B274A40F27121F2E7057B52
:106090009542F7D9B3F5006F07D2B4F5006F0BE066
:1060A00023F08045B5F1005F04D3214B1D4A40F237
:1060B0007321DFE7B4F1005F2CBF0025012525B96E
:1060C0001C4B184A40F27521D4E713F0804F12B2EE
:1060D00013D0C06A002900EBC20514BF4FF0804105
:1060E0004FF0005123F0604324F060440B4344F030
:1060F000004440F832306C6038BD856A0E48002993
:10610000C4F30A0414BF4FF080514FF0006100EA5D
:1061100003430C431C4344F0004445F82240EBE7A2
:10612000A4A00000BBA000008B9D0000F79F000012
:106130005BA0000005A100000000FF0713B572B1CD
:10614000447B944212D923F060426FF020430092C6
:106150000A460021FFF786FF002002B010BD027B37
:1061600022B1C3F30A0240F2FF73F0E70120F4E723
:106170001346C2F38072FFF7E1BF0000F0B5154689
:1061800041F21672A0F850265E4A80F84C168BB089
:1061900040271E460023044680F8443080F85236DB
:1061A0001060194680F84F76142203A802F072FAA4
:1061B0004FF08443019340F60803ADF80C300423FC
:1061C0008DF810308DF813308DF81E300C224E4BA8
:1061D0008DF80E200993ADF81C2004F148034B4ABA
:1061E000029344F240014FF48003ADF816108DF88D
:1061F0001470009706950895936094F8523694F8B9
:10620000510602EBC31301218140596094F85236C4
:1062100094F8501602EBC3130B44032083F840009C
:1062200094F8521694F8513602EBC111194481F8D2
:10623000400094F8521694F8503602EBC11202EB6B
:106240005302882382F83030314B4122C3F8EC20CE
:10625000304A136943F40033136104F5C961684699
:10626000FFF73AFC002841D02B492C4800F0AAFB4C
:1062700069462046FFF7ACFC054670BB2849274815
:1062800000F0A0FB2046FFF77FFC94F84D36BB42A0
:106290002ED12046FFF770FE31462046FFF758FC0E
:1062A0002046FFF779FC94F84C36032B0AD14FF0C7
:1062B000804200212046FFF75BFF0022012120469B
:1062C000FFF756FF63689B69DB0715D41549134830
:1062D00000F078FB28460BB0F0BD13490F4800F0E2
:1062E00062FB0E480A22294600F0A3FBFF25F1E7D6
:1062F0002046FFF747FECFE70C49084800F062FB55
:10630000F4E700BFB00D0020030104040080004149
:10631000001C0040000800403EA100004410002086
:106320005AA1000081A100006AA1000092A1000012
:1063300010B514461A4643689B69DB070AD40CB1B2
:1063400041F08041029BFFF723FEFF280CBF022093
:10635000002010BD0520FCE7014801F099BE00BFF8
:10636000B80D0020FFF7F8BFFFF7F6BFFFF7F4BF47
:1063700013B512491248134C00F0A2FB12491348FE
:1063800000F09EFB1249134800F09AFB1249204688
:1063900000F096FB4FF08641104800F091FB104949
:1063A000104800F08DFB01230022CDE90032214688
:1063B0000D4801F00BFE02B010BD00BF00300040E0
:1063C000F40F0020181000200034004000100020BE
:1063D000002001410C100020004001412410002049
:1063E0000004004330100020B80D0020FEE700003C
:1063F000024B1B6803B11847704700BF3C100020D8
:10640000194B1A481A4A834210B51DD09A421DD022
:10641000144619468142224611D3834219D1154AA6
:10642000D2F8883043F47003C2F88830BFF34F8F3E
:10643000BFF36F8F00F08CF801F006FFFEE71268E3
:1064400041F8042B0434E5E71946E6E719461A46F5
:10645000E3E78A42E3D0084B084A002101E043F811
:10646000041B9342FBD3DAE7000000203001002038
:106470003CA7000000ED00E030050020441600209D
:1064800008B500F062F818B9BDE8084000F054B84B
:1064900008BDFFF7ADBFFFF7ABBFFFF7A9BF000017
:1064A000014B1860704700BF3C100020014B18687A
:1064B000704700BF40100020124A1349F0B5134D39
:1064C00097684B682E68C3F3806390684C68D5F872
:1064D00000C0C4F38064A3420FD166450DD187424A
:1064E0000BD3526842F22220D21B504333444FF464
:1064F0007A72534303EB1050F0BD664623460746BD
:10650000E3E700BF10E000E000ED00E040100020F5
:1065100038B5044670B1FFF7CFFF054600F014F818
:10652000FFF7CAFF401BB0F57A7FF7D3013C05F5B2
:106530007A75F5D138BD0000024A13680133136043
:1065400000F09ABA40100020704700207047000009
:106550006B4A13889BB213806A4B1A7842F001028F
:106560001A705A68D207FCD44FF48272DA625A6801
:106570009006FCD44FF4827262491A624A6812F0A3
:106580000402FBD1604B1A77604A9A6293F82C2080
:1065900012F01002FAD183F820205B4B1A4693F8D0
:1065A0002C104907FBD4197F41F00201197792F8AA
:1065B0002C309807FBD4536A5362534B1A4693F816
:1065C0002C100907FBD4982183F820101369D805F3
:1065D000FCD54C4B4E4A5A635A681106FCD44522EE
:1065E000C3F88420484B77225A63DA6B5207FCD4F5
:1065F0004FF400629A63022283F83020424B1A6CF7
:106600009007FCD51A6CD107F9D53E4A4521C2F84E
:10661000881063229A643C4B1A6D5207FCD44FF4E5
:106620000062DA64022283F84420374B5A6D9007E7
:10663000FCD55A6DD107F9D5324B40F206325A6279
:106640005A681207FCD44FF442729A625A68D00614
:10665000FCD4304A1A632B4B1A4659684906FCD4BD
:1066600040F207311962536813F00403FBD12A4941
:1066700001224A7101F58051886963F382008861C3
:1066800072B6264B9A6062B6254AD36843F080738F
:10669000D360244A136843F0010313604FF0801362
:1066A000214A1B6803F003019184C3F30222C3F360
:1066B0004211120142EA0122C3F382010A431B493B
:1066C000A1F84820C3F38252C3F3C241120142EA47
:1066D0000122C3F302431343154AA2F84830154B75
:1066E0001A6802F01F01C2F3441343EA8113C2F394
:1066F000822243EA02334FF082421385704700BF83
:1067000000400041001C0040001000400000010457
:10671000060130000603040000080040006000414C
:10672000F0ED00E0001000E000200042001C0043FB
:106730000020004384008000182310B51F4C5843EC
:10674000221892F90830013313D0526823560120E1
:10675000904003290DD8DFE801F002250D19DB0177
:1067600003F1824303F500431A44022182F84010EA
:10677000586010BDDB0103F1824303F500431A4466
:10678000062182F8401058609861F2E7DB0103F1BE
:10679000824303F500431A44062182F840105860F2
:1067A0005861E6E7DB0103F1824303F500431A4435
:1067B000022182F840109860DBE700BFB0A1000022
:1067C000182330B5114D58432B1893F90820013286
:1067D00019D05C682B56D80100F1824303F50043C1
:1067E00001229D68A240154209D123440D1E93F851
:1067F000404018BF012565F3820483F84040044BF4
:10680000034409B95A6130BD9A61FCE7B0A10000A8
:106810000080004118230A4958430A1892F90830A9
:1068200001330BD00B56DB0103F1824303F5004328
:10683000186A5368D84000F0010070470020704784
:10684000B0A1000038B51823294D03FB00F2AC18A5
:1068500094F90830B3F1FF3F48D00D2907DC002937
:1068600019DA01314FF0FF3018BF002038BDA1F117
:106870000E03DBB2032B04D80F2904D10021FFF74C
:106880005BFF0020F2E7102901D10221F7E711296F
:10689000F7D10121F3E7AD566468164BED016208AC
:1068A0002B4414F00100C9B21A4410D092F8300001
:1068B00000F00F0040EA01112344C9B282F8301001
:1068C00093F8402042F0410283F84020D9E792F843
:1068D000305005F0F0052344294382F8301093F836
:1068E000402042F0410283F84020BFE71846BDE750
:1068F000B0A10000008000412DE9F84305460C4698
:1069000000F1040800F10709002718F8011B0A220A
:10691000204600F08CF82E210646204600F047F86D
:10692000C84530440744F0D1E9790A22204600F0F6
:106930007EF83844BDE8F883024A026000224260D3
:10694000704700BF48A5000030B58371034D9DF826
:106950000C30056001714271C37130BD48A5000063
:10696000F8B505460E4617460024BC4207D02B68F2
:10697000315D1B682846984708B10134F5E7204689
:10698000F8BD13B50446084659B1019102F078FAF2
:10699000236801995B680246204602B0BDE81040BA
:1069A000184702B010BD08B5FFF7EBFF08BD03683C
:1069B0001B68184708B50249FFF7E3FF08BD00BF91
:1069C0004CA5000038B50546FFF7DBFF0446284616
:1069D000FFF7F0FF204438BDF0B58BB000238DF8F1
:1069E0002430012A98BF0A2209ACB1FBF2F602FB5F
:1069F0001615EBB2092D0F4694BF30333733DBB297
:106A0000BA4204F8013D3146EFD92146FFF7B9FFFC
:106A10000BB0F0BD10B42AB902685DF8044B1268DF
:106A2000C9B210475DF8044BD2B2FFF7D5BFFFF7EC
:106A3000F1BF38B50546FFF7EDFF04462846FFF7DE
:106A4000B9FF204438BD38B50546FFF7E3FF0446DB
:106A50002846FFF7AFFF204438BD0000014B186007
:106A6000704700BF08000020024B4FF0FF321A6051
:106A7000704700BF080000200C4A1368591C13D04F
:106A8000013B136083B972B6094B0A4A1A60BFF31F
:106A90004F8F0949094BCA6802F4E0621343CB6087
:106AA000BFF34F8F00BFFDE7704700BF0800002015
:106AB000FCFF0220EF6916F000ED00E00400FA058B
:106AC000012201600271704770B506683568022BBB
:106AD00045EA827214BF4FF08074002444EA020435
:106AE000346000689DF81040426801F0070141EAF7
:106AF000841114BF5B0300230A431343436070BD3A
:106B000010B5036812051C6802F440120904224300
:106B100001F440310A431A600268536843F4403379
:106B2000536010BD0268136843F0010313600368EB
:106B30001A68D107FCD4DA69D207F9D47047026821
:106B4000136843F0020313600268D3699B07FCD407
:106B5000704703681A7E12F0010F03D11A7E12F0FB
:106B6000020FFAE77047036800225A8370470368F0
:106B7000187EC0F3800070470368187EC009704714
:106B80000268137E43F08003137670470368588BC6
:106B9000C0F3400070470268538B43F002035383F5
:106BA00070470368187E00F0010070470368986A18
:106BB000C0B2704703681A7ED207FCD599620120E3
:106BC0007047036801229A757047036801221A759D
:106BD00070470268136843F00103136003681A6882
:106BE000D107FCD4DA69D207F9D470470268136878
:106BF00043F0020313600268D3699B07FCD470471B
:106C00000368DA69C2F340019207FAD41A6861F3A3
:106C100041021A6070470368996203681A7E52073E
:106C2000FCD5986AC0B2704780684900B0FBF1F0AB
:106C300080B208B1013880B2C0B2704770B50B465F
:106C40000568C3F3400603F0010329681B0743EA04
:106C500046730B432B6011460368FFF7E5FF18737B
:106C600070BD00000368124A934213D002F580629F
:106C7000934211D00F4A934210D002F50052934232
:106C80000ED0B3F1864F0DD00B4A93420CD10520A4
:106C900040B270470020FBE70120F9E70220F7E748
:106CA0000320F5E70420F3E74FF0FF30704700BF03
:106CB000003000400020014100040043052A30B5A7
:106CC0001FD0244C09010C44E3B12179224C20311E
:106CD00054F821506FF3861544F8215054F8215090
:106CE0006D06FBD403B102711B4C6AB9402244F813
:106CF00021200BB1194B8360174A52F821305B06F3
:106D0000FBD530BD6179E1E7012A06D1412244F883
:106D10002120002BF0D0124BEDE7022A06D14222AF
:106D200044F82120002BE7D00E4BE4E7032A07D1DB
:106D3000432244F82120002BDED04FF40043DAE751
:106D4000042AD9D1442244F82120002BD4D0064B68
:106D5000D1E700BF50A50000001C0040000E27072F
:106D6000006CDC0200E1F505001BB7002DE9F341E2
:106D70000546FFF777FF011E3DDB1022062312FBBD
:106D800001331E4A1E4EDFF87CC01A440424E02062
:106D9000012732F9028BB8F1000F1FFA88F324DBC8
:106DA0004FEA581E4FEA8E0E0EF1604E0EF5614E00
:106DB00003F01F03E04407FA03F3CEF8803188F8AC
:106DC0000003CEF80030013C14F0FF04E1D12A7931
:106DD000019101232846FFF771FF2A790199234683
:106DE00002B0BDE8F041FFF769BF03F00F03043BB9
:106DF00033441876E7E702B0BDE8F08150A5000003
:106E000000ED00E000E100E0F8B504460F4616464C
:106E10001D46FFF7ABFF2046FFF784FEBB00710362
:106E2000226803F01C0389B20B4313602368842299
:106E3000012F9A7513D1012E0CBF10230823084A85
:106E40006B43B2FBF3F32268918963F34F31918175
:106E500022689189C3F3CC0363F30C019181F8BDDF
:106E60000060E316F8B505460C4617461E46FFF7C8
:106E7000B0FEFFF77BFF24049DF81820296804F476
:106E8000403444EA82743A0502F44012224342F04C
:106E90000C020A602B6806F0070646F400365E60B6
:106EA0002A68D3695B07FCD4F8BD3F20704707B55B
:106EB00003688DF807105B6801220DF10701984700
:106EC00003B05DF804FB0069022100F0DFBB00693C
:106ED000032100F0EFBB000010B51346074AD2793A
:106EE00004461AB901236360002010BD0A460069F8
:106EF000032100F0CBFC0028F4D0F6E710000020BE
:106F000010B5054C2368591C04D103685B69984788
:106F100003462060184610BD5C000020064A136836
:106F2000591C03D10069022100F0A0BC4FF0FF31D1
:106F300011601846704700BF5C00002003780349C9
:106F4000023303704222024800F03ABD18000020CC
:106F50006010002010B502784378A12A08D1212BB7
:106F60001BD116491648072200F02AFD012010BD4A
:106F7000212A12D1202B12D110491148072200F0EA
:106F8000D9FB0E4B1A68B2F5966F0ED1D87910F076
:106F900001040AD1FA20FFF761FD0020E7E7222B68
:106FA00006D1064B8278DA71EBE7FFF75DFDF4E777
:106FB000232BF2D1034B42881A60EEE71000002029
:106FC000601000200C000020054B00224FF47A7165
:106FD000C3E9012103491960034919611A76704711
:106FE00044100020B8A5000060100020704710B5C4
:106FF00001F1080400F00F02D3B2092ACCBF3733E5
:10700000303304F8013DA1424FEA1010F2D110BD17
:1070100010B50446806901F027FBA06A01F024FB4B
:10702000204610BD10B50446FFF7F2FF204601F0E0
:1070300033F9204610BD00000329F0B407D12C4BD2
:1070400053F82000F8B10368F0BCDB6818478229C8
:107050001BD12849284AC3B201EB43150324AE696A
:1070600064F31E76AE6102EB80100A686861083333
:10707000580102EB4313197941F080011971135C37
:1070800064F306131354F0BC70470029FBD1194D6B
:10709000C2B205EB421303279C6867F31E749C6021
:1070A000164C083204EB8010586054012868055DC6
:1070B000012666F302050555D3F818C00E4D67F397
:1070C0001E7CC3F818C05D61055D66F306150555A5
:1070D00000EB42129868402464F39B3098609868F3
:1070E00061F30D009860537923435371CBE700BFE0
:1070F00064100020181500208C1000204C12002075
:10710000EFF3108202600122426072B6704703689A
:1071100013B962B6BFF36F8F704737B50569044680
:107120006846A5B9FFF7ECFF019B013B03D394F838
:107130002450EDB2F9E768460193FFF7E8FF15B96F
:10714000002003B030BD206AE369C01AF9E7FFF7F9
:10715000D7FF019B0025013B03D394F83450EDB2D7
:10716000F9E768460193FFF7D2FF002DE8D0206BC6
:10717000E36AEAE74368017A1A6830B502EB411422
:1071800003EB411194F8095145F0010584F80951C8
:107190008C68C56865F39B348C60017A03EB4113FE
:1071A00099686FF30D019960037A083302EB43137A
:1071B0001A7942F040021A7130BDF7B505690446EC
:1071C0000E4617466846002D41D1FFF799FF019BF7
:1071D000013B5A1C0CD094F82420591E32B9684641
:1071E0000193FFF794FF284603B0F0BD0B46F0E78C
:1071F00068460193FFF78BFFAF42E36909D0226A2B
:107200009A4206D9A269591CE161D35C73550135D4
:10721000F2E7226A9A42E6D100260123E661236161
:107220006846FFF76DFF3746019B013B581CD6D0DF
:1072300084F8246094F83520591E32B184F83570F2
:1072400020460193FFF796FFEEE70B46EEE7FFF7C8
:1072500057FF019B013B591C08D094F83420591E5C
:1072600002F0FF05002ABAD00B46F4E76846019306
:10727000FFF74DFF0025BD42E36A02D0226B9A4220
:107280001AD8226B9A42AED10026E6622661684681
:10729000FFF736FF3746019B013B5A1C9FD084F80D
:1072A000346094F83520591E6AB184F83570204650
:1072B0000193FFF75FFFEEE7A26A591CE162D35C1E
:1072C00073550135D7E70B46E7E7436837B5027AD0
:1072D0001968044602F1080001EB4011C879C007A3
:1072E00024D5520101251344CD719A686169C2F316
:1072F0000D0209BB2262226A002A3CD0A26A6561A3
:1073000068465A60FFF7FCFE019B013B591C2ED0DA
:1073100084F8245094F83420591E02F0FF003AB14A
:1073200084F8355068460193FFF7F1FE03B030BD95
:1073300084F835000B46E9E72263226BDAB10022BC
:107340006261A2695A606846FFF7DAFE019B013B61
:107350005A1C0CD084F8345094F82420591E02F0A2
:10736000FF00002ADCD184F835000B46F0E76846C0
:107370000193FFF7CCFE2046FFF7FCFED6E713B5DE
:1073800000230C460DF107008DF80730FFF7D6FDFE
:1073900023681844206001F0A3F80DF1070101F003
:1073A0006FF82368184420609DF8070002B010BDF4
:1073B00003290BD10C4B1B6893F8642142F0800227
:1073C00083F86421022283F86721704701290AD1DA
:1073D000054B1B6893F8242142F0800283F8242196
:1073E000022283F8272170471815002038B5354B45
:1073F000354D9A6942F001029A611A6942F480623D
:107400001A61324B93F8582042F0010283F8582059
:1074100093F83C2002F0F00283F83C2093F83C20E3
:1074200042F0070283F83C2093F8592042F0010211
:1074300083F8592093F83C2002F00F0283F83C2097
:1074400093F83C2042F0700283F83C20204B41220C
:10745000C3F8A82004461F48FFF722F8284601F089
:1074600051F8284601F066F82B681A786FF3C712B6
:107470001A701A7842F004021A701A896FF38302A4
:107480001A81154A002182F8501382F8511382F8AC
:10749000521382F853134FF4803191604FF400314E
:1074A00091604FF4802191604FF4002191601A782F
:1074B00042F002021A709A789207FCD401232370DA
:1074C00038BD00BF000800401815002000800041B2
:1074D000001C0040357E000000E100E0007880B133
:1074E000084B1B681A896FF300021A811A8B42F04D
:1074F00008021A831A8B42F004021A83024B0022FC
:107500001A60704718150020101500200E4B9A695C
:107510006FF30D029A611B68022283F8072193F82A
:10752000052142F0800283F8052193F80721920794
:10753000FBD54FF082439A7A61F306029A729A7AE7
:1075400042F080029A727047181500200B7907B537
:107550006BB90846FFF7FEFC18B1012003B05DF8D7
:1075600004FB0A4B9A6960F30D029A61F5E70191F9
:1075700000F0B6FF019900F0A4FF0028EDD1034B05
:107580009A6960F30D029A61E8E700BF18150020C0
:10759000832A2DE9F8430D46114616D12F4A30496A
:1075A000EBB202EB43100326846966F31E74846118
:1075B000083301EB85155B0111684561CA5C042045
:1075C00060F30612CA54BDE8F883022A41D1254E61
:1075D00056F8250010B103685B699847382000F021
:1075E00059FEDFF87880204B03604FF48079002348
:1075F0000362044680F82430C0E9039303634361C7
:1076000080F83430C361C36280F83530C0E9018549
:10761000484601F021F80746A061484601F01CF8F1
:10762000EBB208EB4311A0628A684FF0030C6CF3D5
:107630001E728A600833D8F800005B01C25C6CF3EC
:107640000202C2544F602046FFF794FD46F82540E1
:10765000B9E72846BDE8F843FFF7EEBC181500204F
:107660008C10002064100020DCA5000070B5064DD1
:107670000646012455F824202AB121463046FFF75A
:1076800087FF0134F6E770BD60000020074B53F818
:10769000210010B103689B681847054BC9B203EB82
:1076A00041118868C0F30D00704700BF64100020CE
:1076B0001815002010B50C46FFF7E8FF58B1064B2F
:1076C000E4B21B68083403EB4414637943F080038D
:1076D00063710223E37110BD18150020134B30B500
:1076E000CAB203EB8111124B03EB42100824416034
:1076F000816864F39B31816081686FF30D01816063
:1077000018685501224400EB42110C7944F0400402
:107710000C718C796406FCD500EB4212D179C90753
:10772000FCD52B449868C0B230BD00BF4C1200207D
:107730001815002038B50D4B15461A6892F804311B
:1077400043F040030C4682F804310021FFF7C6FFE6
:10775000074BA84228BF284621462544A94204D009
:1077600013F8012B01F8012BF8E738BD181500209C
:107770004C12002010B50C4BC9B24C0103EB411167
:1077800023448A68C2F30D023F2A89BF88688A6849
:10779000403A62F30D0096BF6FF30D0288608A6075
:1077A0009868C0B210BD00BF181500202DE9F04741
:1077B0001C462A4B1B6807460E469146002B4AD0B2
:1077C000274B53F8213043B11A6855684946224681
:1077D00018462B46BDE8F0471847FFF757FF84428D
:1077E00004D931463846FFF751FF0446DFF878A048
:1077F00031463846FFF7BEFFDAF800301949F5B2D6
:1078000003EB451301EB861193F8082142F00102C6
:1078100083F80821484622464FEA451800F02CFF1D
:10782000B4B131463846FFF731FF88B9DAF8003095
:10783000083503EB451543442A7942F040022A718A
:107840000122EA7193F8092142F0010283F809212B
:107850002046BDE8F0874FF0FF34F9E7101500200F
:10786000641000204C1200201815002007B50123D9
:107870000DF10702FFF79AFF01280CBF9DF80700E2
:107880004FF0FF3003B05DF804FB00002DE9F74F27
:107890001D46344B1B680F461146002B39D0B5F5F9
:1078A000804F36D8304B5FFA87FA0AF1080903EBAC
:1078B00087134FF000084FEA491B65B32B4C2C4847
:1078C000266806EB0B029279D20928D0294ADFF804
:1078D000ACC01268B2FBFCFC274A02FB0CF24FF072
:1078E000170CB2FBFCF206EB491C9CF807E01EF0FB
:1078F000020F14D110F807E0BEF1000F01D1013AD8
:10790000F3D20123C35504EB4A14A3696FF30D03AB
:10791000A3614FF0FF38404603B0BDE8F08F402D23
:107920004FF00002C2552A46184628BF4022CDE932
:10793000001200F0A1FE04EB4A14019A60610346B4
:10794000A06906EB491662F30D00A0610220F071F8
:107950007079009940F0800070719044AD1A114424
:10796000ABE700BF101500208C1000201815002078
:1079700081100020880000207011010040420F009B
:1079800038B51D460C4B0C4603EB841311461846C4
:107990002A4600F071FE03460848E1B200EB4111AF
:1079A00028464B618B696FF39B338B618B6965F361
:1079B0000D038B6138BD00BF8C100020181500200E
:1079C000114B1B782DE9F04107468846154653B9FF
:1079D0000E4B1C7854B10E4E0E48348820442C4473
:1079E00000F04AFE34802846BDE8F0811646002E9D
:1079F000F9D0334608EB040200213846FFF7C0FFF8
:107A00000444361AF3E700BF0C1400200D150020C3
:107A10000E1500200D140020F0B5012A83B00D468C
:107A200000AF14462CD9D31D03F4FC73ADEB030D4A
:107A300069462846796001F023FA013040000323AB
:107A400079688DF800008DF80130013D0222002692
:107A5000A2420CD215F8010F48B1531CDBB29C4274
:107A6000885403D0CE54931CDAB2F1E7224605487D
:107A7000FFF7A6FF003818BF01200C37BD46F0BD48
:107A80000020FAE7601000202DE9FF41DFF8888030
:107A900000250E46012769460446009588F80070C7
:107AA000FFF76DFC40F20923ADF80430A0238DF8F8
:107AB0000B30FA238DF80C30009B8DF80A500933F7
:107AC000092E8DF80970ADF806308DF8080088F899
:107AD000005008D1324601A92046FFF771FF01206E
:107AE00004B0BDE8F081DFF83480094E009509222A
:107AF00001A9204688F800703580FFF761FF6946CC
:107B00002046FFF73CFC3288024988F80050E3E742
:107B10000E1500200D1400200C1400200D1500205F
:107B2000F0B5CD78022D93B006460F4608D1C9882E
:107B30002C48FFF7A9FF003818BF012013B0F0BD93
:107B400000F0CEFC394600F0AEFC041E03D0CCBFE2
:107B500001200020F2E7012D0AD1FA88112A3CD831
:107B60002149D2B262B13046FFF72AFF0120E5E792
:107B7000032D34D1BB782BB9FA88032A2AD91B49A3
:107B80000A78F0E7022B05D1BA7919493046FFF798
:107B900043FFD3E7012B02D1BA791649F6E7032B4D
:107BA0001DD1154B01A91868FFF721FA134B03A942
:107BB0001868FFF71CFA124B05A91868FFF717FAA7
:107BC000104B07A91868FFF712FABA798DF824400C
:107BD00001A9DBE70549D2B2C4E70349D0E7204653
:107BE000ACE700BF601000201CA600000CA600003F
:107BF000F4A5000010A60000FC6180001060800069
:107C0000146080001860800037B54B780C460B2B51
:107C10000FD8DFE803F0061E0E2F0E4448764B4EB9
:107C20006A6D097841B9ADF80410022301AAFFF783
:107C3000A7FE012003B030BD0023ADF80430324B65
:107C40001B78012B08BF8DF8043001AA0223002104
:107C5000EDE78B78012B4FF0000303D1ADF8043032
:107C60002A4BEDE7284A1370294A916963F30D0105
:107C70009161DEE78C78012C06D1244B00211C7029
:107C80008DF804102346D1E7002C3AD11E4B012079
:107C900018701F4B9A6964F30D029A61CAE78978DC
:107CA000FFF734FCC5E7FFF73BFFC3E7194A0123A1
:107CB000CDE70B7813F01F0523D1FFF7D7FC154B49
:107CC000A2781A60124A136893F8291141F0020150
:107CD00083F8291193F8491141F0010183F8491102
:107CE000936965F30D039361A3E70B4A0123AEE7A4
:107CF000094B8A781A60064B9A696FF30D029A61F4
:107D000097E7002096E700BF801000208810002031
:107D10001815002010150020141500202DE9F84337
:107D20003F4B1C780746002C6BD13E4D2B689B8B3C
:107D300019070ED521462046FFF77EF92B6893F8E8
:107D4000092142F0100283F80921374A1460082201
:107D50009A832B689A8B520744BF04229A8393F824
:107D60000721D60626D5102283F8072193F804218F
:107D70002E4942F0400283F804210B7813F0600F83
:107D8000384640D1FFF740FF2B6800283ED093F8DB
:107D9000052142F0800283F8052193F8072154065B
:107DA00008D5402283F8072193F8082142F04002C9
:107DB00083F808212B68DFF878901E8C002406F0E9
:107DC000FE064FF00108E1B2DEB146FA04F3D8072F
:107DD00014D52B6804F1080203EB4213DA79D207B9
:107DE00002D4DB799B0705D559F82400A0B10368BC
:107DF0001B68984708FA04F326EA03060134092CA5
:107E0000E1D1BDE8F883FFF7A1FBBDE74FF0824267
:107E1000202182F80511C0E73846FFF7C9FAE9E7E3
:107E20000D15002018150020101500204C12002000
:107E3000641000200148FFF771BF00BF60100020F0
:107E4000024B4FF082421A60704700BF18150020A5
:107E500001207047036840F213421B6A1847D0F8AC
:107E60001821D0F814319A421DBFD0F81831C0182B
:107E7000007D4FF0FF30704710B504460069FEF7F3
:107E800051FE0023C4F81431C4F81831C4F81C3270
:107E9000C4F8203210BD01F47061B1F5007F08D044
:107EA000B1F5407F07D0B1F5807F14BF00200520D9
:107EB0007047062070470720704701F00F01012925
:107EC00004D0022914BF022001207047002070470F
:107ED0002DE9F3410446334E90F82402182707FB9E
:107EE0000063884693F908101546FEF7ABFC94F83A
:107EF000250207FB006393F90810FEF7A3FC94F832
:107F00002732022B09D194F83802FF2805D007FB4D
:107F1000006797F90810FEF795FC94F82802FF28EF
:107F200017D00121FEF708FC94F8282218235343A8
:107F3000F118F2561C4B4968D2011344C4F82C3294
:107F40001A4B134401228A40C4F83032C4F8342258
:107F50001A600122434611462069FEF755FF294663
:107F60002046FFF798FF2946064605F0F005204613
:107F7000FFF7A3FFA5F130025542554103463146B4
:107F8000206900950122FEF79FFD206994F82622C2
:107F900094F82712FEF7B4FD206902B0BDE8F04165
:107FA000FEF7CDBDB0A10000188000411480004153
:107FB00010B54FF480720446002100F06BFB0023E3
:107FC000C4F800312046C4F8043110BDF8B5164697
:107FD0001D4600224FF47A73C0E901230F4B04467B
:107FE00040F8143B0F46FFF7E3FF04F58E70FFF7F0
:107FF000DFFF9DF8183084F826329DF81C3084F895
:108000002732FF23276184F8246284F8255284F8FC
:10801000283284F838322046F8BD00BF38A6000068
:10802000D0F80031D0F80401181A48BF00F580706C
:10803000704738B5044600F58E752846FFF7F0FF07
:108040000028FAD12069BDE83840FEF782BD08B5A6
:108050001430FFF7E5FF08BDD0F80021D0F8043157
:108060009A42A5BFD0F80031D0F80421D0F80431ED
:10807000C3F1FF00AFBF8018D0F80001181A00F15B
:10808000FF30704708B500F58E70FFF7E5FF08BDBB
:1080900010B504460069FEF779FD28B12069FEF7A6
:1080A00085FD2069FEF777FD2069FEF760FDF8B1D8
:1080B0002069FEF77BFDD4F81431D4F81821013380
:1080C000DBB293421FBFD4F8142112191075C4F803
:1080D000143194F82832FF2B0AD004F11400FFF772
:1080E000BBFF0928DEBFD4F82C32D4F834221A6042
:1080F0002069FEF756FDE0B104F58E70FFF790FFA2
:1081000018B3D4F82022D4F81C3220699A421BBF3D
:10811000D4F820321B194FF0FF3193F81C111FBF08
:10812000D4F820320133DBB2C4F82032C9B2FEF7F2
:1081300041FD2069FEF720FD58B12069FEF720FDC2
:108140002069BDE81040FEF70EBD2069FEF73DFD39
:10815000EFE710BDF8B5044600690D46FEF721FDB6
:1081600000283DD1244E254FD4F81C32D4F82022CB
:108170000133DBB293421ED1EFF31083DB0711D43E
:108180007368C3F30803002BEED0103B9AB2002BA8
:10819000BBBF02F00F03043BDB199B19ACBF93F884
:1081A00000331B7E2069FEF7FCFC0028DCD0204653
:1081B000FFF76EFFD8E7D4F81C32D4F82022013341
:1081C000DBB293421EBFD4F81C22121982F81C5154
:1081D000206918BFC4F81C32FEF7F3FC0120F8BD7B
:1081E00004F58E70FFF71CFF0028BBD120692946DB
:1081F000FEF7E0FCF2E700BF00ED00E000E100E088
:1082000038B5D0F81821D0F814319A421BBFD0F8F5
:1082100018311B184FF0FF351D7D1FBFD0F81831E6
:108220000133DBB2C0F8183190F82832FF2B044636
:1082300007D01430FFF710FF0A28C4BFD4E98C32EE
:108240001A60284638BD704708B500F027F800F0DE
:10825000D7F9FFF7F8FF0120FEF75AF90A480B4C4F
:10826000FFF7C4F80848FFF739F9094B02225A70A2
:10827000FCF7C4F8FCF73EF9FEF766F9002CF9D0DC
:10828000AFF30080F6E700BF6010002000000000A0
:108290000024004300F0E0B900F0E6B9404BF7B528
:1082A0001B684FF47A72B3FBF2F3013BB3F1807FAA
:1082B00072D23C4A53603C4BE02183F823100720E4
:1082C000002191601060C02283F82320374B5A6947
:1082D00042F470425A619A6942F4FC429A61DA6946
:1082E00042F07802DA611A6A6FEA92226FEA822219
:1082F0001A6203F5A0534122C3F82021C3F82421B8
:1083000003F14073009303F5806301936C460425E9
:10831000022605274FF4C05C54F8043B1A8865F325
:108320000A221A80DA8866F3C402DA801A6B100710
:10833000FCD4DF721A6B5206FCD4A3F804C01A6B8B
:1083400012F00402FBD19A72186B10F02000FBD1DE
:1083500019B300F031F8164B4422C3F82821D3F8A2
:1083600028215006FBD5134A13469168C907FCD44F
:10837000117841F0010111709A68D207FCD40022F3
:108380005A709A89022161F30B229A81DA8961F38A
:108390000B22DA8103B0F0BDFEE70121BCE700BF8C
:1083A0008800002010E000E000ED00E00008004040
:1083B000001C0040002400432E4B1A46196BC906CE
:1083C000FCD42D490B6BDB06FCD401382A4B0A2860
:1083D0004CD8DFE800F0061B212529324B363A48FD
:1083E0003E00264BDA696FF31342DA61DA6942F034
:1083F0000402DA611F4A137A6FF30303137292F8CF
:1084000008346FF3030382F8083470471B4BDA69B2
:10841000012161F31342E8E7184B0221DA69F8E71A
:10842000164B0321DA69F4E7144BDA69042161F38E
:108430001342DA61DA690A43DBE7104B0521DA6996
:10844000E7E70E4B0621DA69E3E70C4B0721DA690F
:10845000DFE7117A042060F3030111721A7A60F3E6
:1084600003021A727047117A0220F4E7117A03208E
:10847000F1E700BF001C004300200043001800404B
:1084800070B544680E4600255CB1236831465B68D0
:1084900020469847002802DBE4680544F4E74FF0E3
:1084A000FF35284670BD38B544680D463CB1236899
:1084B00029469B682046984710B9E468F6E72046AD
:1084C00038BD38B544680D463CB1236829461B6861
:1084D0002046984710B9E468F6E7204638BD00000A
:1084E000064A136813F0010306D1054940F2024021
:1084F0004B60012308801360014870471C16002060
:1085000020160020034610B553F8044B227842F0A1
:108510000102227018464FF48072002100F0BAF870
:108520000346A278D107FCD4A2789207F9D46362FB
:1085300010BD000010B50F4B02681B68108D03F0D2
:108540001F041F2C08BF052464F38A10C3F34411D1
:108550001085108D1F2908BF1D2161F30400C3F38E
:1085600082231085118D072B08BF032363F30E317F
:10857000118510BD840080000B460146184600F0AE
:108580001FB800001FB514461A46094B1B68054664
:10859000D8684CB1074B0091CDE9013406492B4610
:1085A00000F01CF800F034FD044B1C46F3E700BF5C
:1085B0008C00002064A6000071A600004EA50000FB
:1085C00010B5054C13462CB10A4601460220AFF304
:1085D000008010BD2046FCE7000000000EB403B58B
:1085E000014603AB054853F8042B0068019300F0E3
:1085F00073F902B05DF804EB03B070478C00002003
:1086000070B50D4D0D4C641BA4100026A64209D177
:108610000B4D0C4C01F0C0F8641BA4100026A642C0
:1086200005D170BD55F8043B98470136EEE755F883
:10863000043B98470136F2E7F0000020F0000020EC
:10864000F000002028010020024B0A46014618686D
:1086500000F078B88C000020024B0146186800F04A
:10866000B7B800BF8C000020024B0146186800F02C
:1086700019B800BF8C0000200A44914200F1FF337A
:1086800000D1704710B511F8014B03F8014F91422A
:10869000F9D110BD02440346934200D1704703F85C
:1086A000011BF9E737B5002948D051F8043C019087
:1086B000002BA1F10404B8BFE41800F021FF204A08
:1086C00001981368154633B96360146003B0BDE8C0
:1086D000304000F01BBFA3420BD9216862189342BF
:1086E00004BF1A685B68636004BF521822602C6084
:1086F000ECE71A465B680BB1A342FAD9116855182A
:10870000A5420BD1246821445418A3421160DDD145
:108710001C685B68536021441160D7E702D90C23C1
:108720000360D3E7256861198B4204BF19685B6851
:10873000636004BF491921605460C7E703B030BDCE
:1087400028160020F8B54B1E0B42074602D0002524
:108750002846F8BD082938BF0821042A38BF04225A
:10876000D41C0E4624F003040839214400F030F8EC
:108770000028ECD050F8042C031F002AB8BF9B1827
:10878000F51C1D4476423540191D6A1A0BD00B2A80
:1087900003EB020618D91868801A98501A603846F8
:1087A000FFF780FF33461A6804F10C01981829443A
:1087B0008842CDD92919C81A121A186004312A51D1
:1087C0003846FFF76FFFC3E751429950EBE70000CF
:1087D000F8B5CD1C25F0030508350C2D38BF0C2548
:1087E000002D064601DBA94203D90C23336000208B
:1087F000F8BD00F085FE21490A6814469CB9204F57
:108800003B6823B92146304600F02AFB38602946F0
:10881000304600F025FB431C23D10C233360304647
:1088200000F074FEE3E723685B1B17D40B2B03D91E
:1088300023601C44256004E06368A2420CBF0B6007
:108840005360304600F062FE04F10B00231D20F05F
:108850000700C21ACCD01B1AA350C9E7224664688D
:10886000CCE7C41C24F00304A042E3D0211A304614
:1088700000F0F6FA0130DDD1CFE700BF2816002066
:108880002C1600209368013B002B10B4936008DA8B
:108890009469A34201DB0A2903D15DF8044B00F07F
:1088A000F7BA1368581C1060197008465DF8044B3D
:1088B0007047F8B506460F461446D518AC4201D1AC
:1088C000002007E014F8011B3A463046FFF7DAFFB4
:1088D000431CF3D1F8BD00002DE9F04F0D469DB0CB
:1088E00014469846064618B183690BB900F0B2FCED
:1088F000894B9D421BD175686B6ED90705D4AB8936
:108900009A0502D4A86D00F043FDAB891B0701D581
:108910002B69EBB92946304600F00CFBC0B16B6EF9
:10892000DC070ED54FF0FF301DB0BDE8F08F7B4B5C
:108930009D4201D1B568DFE7794B9D4208BFF568DC
:10894000DAE7AB899805EDD4A86D00F022FDE9E7E0
:108950000023099320238DF82930CDF80C80302393
:10896000DFF8C0818DF82A304FF0010923469A467E
:1089700013F8012B0AB1252AF9D1BAEB040B0BD05D
:108980005B46224629463046FFF793FF013000F050
:10899000AA80099A5A4409929AF80030002B00F0F4
:1089A000A28000234FF0FF32CDE905230AF1010A2E
:1089B000049307938DF853301A935446052214F804
:1089C000011B584800F04CFD049AD8B9D10644BFA9
:1089D00020238DF85330130744BF2B238DF85330D9
:1089E0009AF800302A2B15D0079A544600204FF0F1
:1089F0000A0C214611F8013B303B092B4ED9B0B18E
:108A0000079214E0A0EB080309FA03F3134304935D
:108A1000A246D2E7039B191D1B680391002BBBBF25
:108A20005B4242F0020207930793B8BF0492237897
:108A30002E2B0CD163782A2B35D1039B1A1D1B6872
:108A40000392002BB8BF4FF0FF3302340593DFF8D9
:108A5000E4A021780322504600F002FD40B14023FB
:108A6000A0EB0A0003FA00F0049B034301340493D3
:108A700014F8011B2C488DF82810062200F0F0FC99
:108A800000283FD0294B1BBB039B073323F0070370
:108A900008330393099B3B44099367E70CFB0232BD
:108AA0000C460120A5E700230134059319464FF039
:108AB0000A0C204610F8012B303A092A03D9002B62
:108AC000C5D00591C3E70CFB012104460123F0E763
:108AD00003AB00932A46164B04A93046AFF300803F
:108AE0000746781CD6D16B6ED90705D4AB899A0599
:108AF00002D4A86D00F04DFCAB895B063FF512AFC8
:108B0000099811E703AB00932A46094B04A93046A4
:108B100000F080F8E4E700BFF8A6000018A7000006
:108B2000D8A60000A4A60000AEA600000000000029
:108B3000B3880000AAA600002DE9F0471646994622
:108B40008A680B69DDF820809342B8BF1346336012
:108B500091F8432007460C460AB10133336023687D
:108B6000990642BF336802333360256815F0060565
:108B700006D104F1190AE36832689B1AAB4226DC7D
:108B800094F84320131E226818BF012392062BD4A9
:108B900004F1430249463846C04701301ED02368DD
:108BA000E568326803F00603042B08BFAD1AA3681A
:108BB00022690CBF25EAE57500259342C4BF9B1AC4
:108BC000ED1800261A34B5421AD1002008E001231E
:108BD000524649463846C047013003D14FF0FF3076
:108BE000BDE8F0870135C6E7E1185A1C302081F84E
:108BF0004300224494F8451082F843100233C7E73B
:108C00000123224649463846C0470130E6D00136A6
:108C1000D9E700002DE9FF470C469146277E0C99C5
:108C2000782F80469A4604F1430207D8622F0AD86B
:108C3000002F00F0D880582F00F0A38004F14206E6
:108C400084F842703AE0A7F16303152BF6D801A02F
:108C500050F823F0AD8C0000C18C00003D8C00006A
:108C60003D8C00003D8C00003D8C0000C18C00005C
:108C70003D8C00003D8C00003D8C00003D8C0000D0
:108C8000CD8D0000F18C0000AF8D00003D8C000008
:108C90003D8C0000EF8D00003D8C0000F18C000049
:108CA0003D8C00003D8C0000B78D00000B681A1D44
:108CB0001B680A6004F1420684F842300123A3E0F5
:108CC000256808682E0600F104030AD505680B60C4
:108CD000002D03DA2D236D4284F843305E480A23C9
:108CE00019E015F0400F05680B6018BF2DB2EFE7D3
:108CF0000B682568181D0860280601D51D6802E06C
:108D00006906FBD51D8854486F2F0CBF08230A2322
:108D1000002184F843106668A660002EA2BF216877
:108D200021F0040121600DB9002E4DD01646B5FB8F
:108D3000F3F103FB1157C75D06F8017D2F46BB42D7
:108D40000D46F4D9082B0BD12368DF0708D523691A
:108D500061689942DEBF302306F8013C06F1FF3618
:108D6000921B2261CDF800A04B4603AA2146404643
:108D7000FFF7E2FE01304CD14FF0FF3004B0BDE808
:108D8000F087354884F8457023680E681F0656F84A
:108D9000045B0E6014D5D90744BF43F02003236061
:108DA0001DB9236823F0200323601023B0E7236854
:108DB00043F0200323607823284884F84530E3E714
:108DC0005E0648BFADB2E6E71646BBE70B6826680D
:108DD00060691D1D0D6035061B6801D5186002E035
:108DE0007106FBD51880002323611646BAE70B688D
:108DF0001A1D0A601E6862680021304600F030FBD0
:108E000008B1801B606063682361002384F84330ED
:108E1000A8E72369324649464046D0470130ABD0E7
:108E200023689B0713D4E068039B9842B8BF184699
:108E3000A4E70123324649464046D04701309BD043
:108E40000135E36803995B1AAB42F2DCEBE70025DE
:108E500004F11906F5E700BFB5A60000C6A600009C
:108E600038B5064D0023044608462B6000F07CFC14
:108E7000431C02D12B6803B1236038BD401600208B
:108E8000034613F8012B002AFBD1181A013870474A
:108E9000F8B50E461446054618B183690BB900F0C3
:108EA000D9F9214B9C422BD16C68A369A360A3899B
:108EB0001A072FD523696BB323692068C01A636929
:108EC000F6B28342374604DC2146284600F02EF9EC
:108ED00030BBA368013BA36023685A1C22601E704C
:108EE00063690130834204D0A389DB0706D50A2ECB
:108EF00004D12146284600F019F988B93846F8BD52
:108F00000A4B9C4201D1AC68CFE7094B9C4208BF99
:108F1000EC68CAE72146284600F00CF80028CBD0C0
:108F20004FF0FF37EAE700BFF8A6000018A70000DF
:108F3000D8A60000324B70B51D6806460C4625B118
:108F4000AB6913B9284600F085F92E4B9C420FD12E
:108F50006C68A389B4F90C2019072CD4DD0611D450
:108F60000923336042F04003A3814FF0FF303EE01D
:108F7000254B9C4201D1AC68EBE7244B9C4208BFD7
:108F8000EC68E6E7580712D5616B41B104F1440380
:108F9000994202D03046FFF785FB00236363A38923
:108FA00023F02403A3810023636023692360A38942
:108FB00043F00803A38123694BB9A38903F4207309
:108FC000B3F5007F03D02146304600F007FAA089B0
:108FD000B4F90C2010F001030AD00023A3606369E8
:108FE0005B42A361236943B910F08000BAD170BD20
:108FF000810758BF6369A360F4E70020F7E700BF6B
:109000008C000020F8A6000018A70000D8A60000D9
:1090100008B5062000F0A8FA012000F0BBFB000014
:109020008A892DE9F041054610070C4658D44B6853
:10903000002B05DC0B6C002B02DC0020BDE8F0816E
:10904000E66A002EF9D0002312F480522F682B60BC
:1090500032D0606DA3895A0705D56368C01A636B67
:109060000BB1236CC01A00230246E66A216A284627
:10907000B047431CA38906D129681D292CD82A4A48
:10908000CA40D60728D500226260D904226922602E
:1090900004D5421C01D12B6803B96065616B2F6058
:1090A0000029CAD004F14403994202D02846FFF7B0
:1090B000F9FA00206063C1E7216A01232846B0471E
:1090C000411CC7D12B68002BC4D01D2B01D0162BFF
:1090D00001D12F60B1E7A38943F04003A381ADE73D
:1090E0000F69002FA9D093070E6808BF4B690F6066
:1090F00018BF0023A6EB07088B60B8F1000F9CDDBA
:10910000216AA66A43463A462846B047002806DC4C
:10911000A38943F04003A3814FF0FF308EE707445B
:10912000A8EB0008E9E700BF0100402038B50B6953
:1091300005460C4613B90025284638BD18B1836989
:109140000BB900F087F8144B9C421BD16C68B4F942
:109150000C30002BEFD0626ED00704D4990502D4F6
:10916000A06D00F015F928462146FFF759FF636E00
:10917000DA070546E0D4A3899B05DDD4A06D00F095
:1091800008F9D9E7054B9C4201D1AC68DFE7044BF5
:109190009C4208BFEC68DAE7F8A6000018A70000B8
:1091A000D8A60000002310B50446C0E90033C0E98A
:1091B0000433836081814366C2818361194608223A
:1091C0005C30FFF767FA054B6362054BA362054B02
:1091D000E362054B2462236310BD00BFA19500002C
:1091E000C3950000FB9500001F960000014900F0A8
:1091F000AFB800BF2D91000070B54A1E68255543D9
:109200000E4605F17401FFF7E3FA044640B1002170
:10921000C0E900160C30A06005F16802FFF73AFAC9
:10922000204670BD014800F0B3B800BF3C160020D6
:10923000014800F0AEB800BF3C160020014800F025
:10924000A7B800BF37160020014800F0A2B800BF41
:109250003716002010B50446FFF7F0FFA3691BB1D5
:10926000BDE81040FFF7F0BFC4E912332365134B8C
:10927000134A1B68A262A34204BF0123A3612046D4
:1092800000F020F86060204600F01CF8A060204646
:1092900000F018F80022E06004216068FFF782FF08
:1092A000A06801220921FFF77DFFE0680222122158
:1092B000FFF778FF0123A361D2E700BFA0A600005B
:1092C000ED910000F8B50746FFF7ACFF1E4B1E6896
:1092D000B36913B93046FFF7BDFF4836D6E901340C
:1092E000013B03D533680BB33668F7E7B4F90C508C
:1092F000D5B9164BE36004F15800656600F047F8F5
:10930000FFF796FFC4E90155C4E904552560A5613E
:109310000822294604F15C00FFF7BCF9C4E90D55A9
:10932000C4E912552046F8BD6834D9E7042138460F
:10933000FFF762FF044630600028D5D1FFF778FFC1
:109340000C233B60EEE700BFA0A600000100FFFF7A
:109350002DE9F8430646884600F148040027D4E981
:109360000195B9F1010905D52468002CF7D13846DB
:10937000BDE8F883AB89012B07D9B5F90E3001336D
:1093800003D029463046C04707436835E9E77047B0
:109390007047704770B50E46B1F90E10002996B0AF
:1093A00014461D4607DA00232B60B3891A0610D431
:1093B0004FF480630EE06A4600F058F90028F2DBB3
:1093C000019A02F47042A2F500535A425A412A60AF
:1093D000EEE740230020236016B070BD8B8973B583
:1093E0009D0706460C4607D504F147032360236119
:1093F0000123636102B070BD01AB6A46FFF7CAFF8B
:10940000009905463046FFF7E3F948B9B4F90C3046
:109410009A05EFD423F0030343F00203A381E3E7AB
:109420000D4BB362A389206043F08003A381009BAE
:109430006361019B20615BB1B4F90E10304600F00E
:1094400027F928B1A38923F0030343F00103A38183
:10945000A0890543A581CDE7ED9100000000000043
:1094600001F0FF01102A2BDB10F0070F08D010F8D5
:10947000013B013A8B422DD010F0070F42B3F6D1D9
:10948000F0B441EA012141EA014122F007047FF0F2
:1094900000070023F0E80256083C85EA010586EA49
:1094A000010685FA47F5A3FA87F586FA47F6A5FA85
:1094B00087F68EB9EED1F0BC01F0FF0102F0070291
:1094C00032B110F8013B013A83EA010313B1F8D13C
:1094D0000020704701387047002D06BF354603381D
:1094E000073815F0010F07D1013015F4807F02BF56
:1094F000013015F4C03F0130F0BC0138704700BFA7
:109500000148FFF745BF00BF381600200148FFF7AC
:1095100040BF00BF381600201F2938B504460D464D
:1095200004D9162303604FF0FF3038BD426C12B1EE
:1095300052F821304BB9204600F030F82A46014657
:109540002046BDE8384000F017B8012B0AD0591C5E
:1095500003D1162303600120E7E7002442F82540E9
:10956000284698470020E0E7024B01461868FFF7BD
:10957000D3BF00BF8C00002038B5074D0023044640
:10958000084611462B6000F0D7F8431C02D12B6827
:1095900003B1236038BD00BF4016002000F0BCB806
:1095A00010B50C46B1F90E1000F094F80028ABBFCE
:1095B000636DA3891B1823F48053ACBF6365A3813B
:1095C00010BD2DE9F0411F468B89DB0505460C4691
:1095D000164605D5B1F90E100223002200F068F8F6
:1095E000A389B4F90E1023F48053A38132463B467D
:1095F0002846BDE8F04100F017B810B50C46B1F9A7
:109600000E1000F055F8431CA38915BF606523F4C4
:10961000805343F48053A38118BFA38110BDB1F9D7
:109620000E1000F013B8000038B5074D0446084688
:10963000114600222A601A4600F0A4F8431C02D109
:109640002B6803B1236038BD4016002038B5064DA5
:109650000023044608462B6000F04EF8431C02D15C
:109660002B6803B1236038BD4016002038B5074D84
:1096700000230446084611462B6000F045F8431CC1
:1096800002D12B6803B1236038BD00BF4016002013
:1096900038B5064D0023044608462B6000F044F818
:1096A000431C02D12B6803B1236038BD4016002053
:1096B00038B5074D04460846114600222A601A466E
:1096C00000F042F8431C02D12B6803B1236038BD7F
:1096D0004016002038B5074D0446084611460022C2
:1096E0002A601A4600F038F8431C02D12B6803B1F7
:1096F000236038BD40160020024B58221A604FF0FC
:10970000FF30704740160020024B58221A604FF07D
:10971000FF30704740160020024B58221A604FF06D
:10972000FF30704740160020024B58221A6000207C
:10973000704700BF40160020024B58221A604FF0BD
:10974000FF30704740160020024B58221A604FF03D
:10975000FF30704740160020024B58221A604FF02D
:10976000FF30704740160020044A05491368002B5B
:1097700008BF0B461844106018467047301600208A
:1097800044160020024B58221A604FF0FF307047F9
:1097900040160020FEE700BFF8B500BFF8BC08BCCB
:1097A0009E467047F8B500BFF8BC08BC9E4670479F
:1097B0006574685465737400556E6B6E6F776E00D8
:1097C0004F4E004F46460043414E20496E69746932
:1097D000616C697A6564205375636365737366753C
:1097E0006C6C7921004572726F7220496E697469E0
:1097F000616C697A696E672043414E2E2E2E0000FF
:10980000010203040506070000000000020000003A
:1098100004000000060000000E000000010000002F
:109820000300000005000000070000000F0000001A
:10983000705F736572636F6D20213D204E554C4CF7
:1098400000535049436C6173733A3A535049436C27
:1098500061737328534552434F4D2A2C2075696E0E
:1098600074385F742C2075696E74385F742C2075A1
:10987000696E74385F742C20536572636F6D53701A
:109880006954585061642C20536572636F6D52584F
:109890005061642900433A5C55736572735C6C6F68
:1098A0007761695C417070446174615C4C6F6361A5
:1098B0006C5C41726475696E6F31355C7061636BAD
:1098C000616765735C4C6F6E67616E5C6861726442
:1098D000776172655C73616D645C312E302E345C2F
:1098E0006C69627261726965735C5350495C535074
:1098F000492E637070000000283000400500000011
:1099000004000000283400400700000006000000AA
:109910002820014109000000080000002840014102
:109920000B0000000A000000280000430D000000AA
:109930000C000000280400430F0000000E0000008F
:109940001F00200021002200230000002449920073
:10995000264992003449920036499200A449920067
:10996000A6499200B4499200B6499200244D920053
:10997000264D9200344D9200364D9200A44D920037
:10998000A64D9200B44D9200B64D9200246992000B
:10999000266992003469920036699200A4699200A7
:1099A000A6699200B4699200B6699200246D920093
:1099B000266D9200346D9200366D9200A46D920077
:1099C000A66D9200B46D9200B66D9200244993008A
:1099D000264993003449930036499300A4499300E3
:1099E000A6499300B4499300B6499300244D9300CF
:1099F000264D9300344D9300364D9300A44D9300B3
:109A0000A64D9300B44D9300B64D93002469930086
:109A1000266993003469930036699300A469930022
:109A2000A6699300B4699300B6699300246D93000E
:109A3000266D9300346D9300366D9300A46D9300F2
:109A4000A66D9300B46D9300B66D930024499A00FF
:109A500026499A0034499A0036499A00A4499A0046
:109A6000A6499A00B4499A00B6499A00244D9A0032
:109A7000264D9A00344D9A00364D9A00A44D9A0016
:109A8000A64D9A00B44D9A00B64D9A0024699A00EA
:109A900026699A0034699A0036699A00A4699A0086
:109AA000A6699A00B4699A00B6699A00246D9A0072
:109AB000266D9A00346D9A00366D9A00A46D9A0056
:109AC000A66D9A00B46D9A00B66D9A0024499B0069
:109AD00026499B0034499B0036499B00A4499B00C2
