:1040000000000320F54D0000E14D0000E14D0000EF
:10401000E14D0000E14D0000E14D00000000000016
:10402000000000000000000000000000E14D000062
:10403000E14D000000000000E14D0000754E000061
:10404000E14D0000E14D0000E14D0000E14D0000B8
:10405000E14D0000E14D0000E14D0000E14D0000A8
:10406000E14D0000E14D0000E14D0000E14D000098
:10407000E14D0000E14D0000E14D0000E14D000088
:10408000E14D0000E14D0000E14D0000E14D000078
:10409000E14D0000E14D0000E14D0000E14D000068
:1040A000E14D0000E14D0000E14D0000E14D000058
:1040B000E14D0000E14D0000E14D0000E14D000048
:1040C000E14D0000E14D0000E14D0000E14D000038
:1040D000E14D0000E14D0000E14D0000E14D000028
:1040E000E14D0000E14D0000E14D0000E14D000018
:1040F00000000000E14D0000E14D0000E14D000036
:10410000E14D0000E14D0000E14D0000E14D0000F7
:10411000E14D0000E14D0000E14D0000E14D0000E7
:10412000E14D0000E14D00004D4D0000594D0000F3
:104130005D4D0000614D0000E14D0000E14D0000CB
:10414000E14D0000E14D0000E14D0000E14D0000B7
:10415000E14D0000E14D0000E14D0000E14D0000A7
:10416000E14D0000E14D0000E14D0000E14D000097
:10417000E14D0000E14D00000000000000000000E3
:10418000E54D0000874E00008B4E00008F4E000072
:1041900000000000E14D0000E14D0000E14D000095
:1041A000E14D0000E14D0000E14D0000E14D000057
:1041B000E14D0000E14D0000E14D0000E14D000047
:1041C000E14D0000E14D0000E14D0000E14D000037
:1041D000E14D0000E14D0000E14D0000E14D000027
:1041E000E14D0000E14D0000E14D0000E14D000017
:1041F000E14D000000000000E14D0000E14D000035
:10420000E14D0000E14D0000E14D0000E14D0000F6
:10421000E14D0000E14D0000E14D0000E14D0000E6
:10422000E14D0000E14D0000E14D0000E14D0000D6
:10423000E14D0000E14D0000E14D0000E14D0000C6
:10424000E14D0000E14D0000E14D0000E14D0000B6
:10425000E14D0000E14D0000E14D0000E14D0000A6
:10426000E14D000010B5054C237833B9044B13B170
:104270000448AFF300800123237010BD100100201B
:10428000000000007888000008B5034B1BB103490B
:104290000348AFF3008008BD0000000014010020B7
:1042A0007888000070B5104E104C336813F0010F81
:1042B000054604D100F0F4FD01232060336000F0D6
:1042C000EFFD2368C01AA8420CD300F0E9FD20607E
:1042D0000D2000F099FFBDE87040C0F101010D20F4
:1042E00000F068BF70BD00BF800700208807002075
:1042F00070B5064E0546002456F8040B29460134D5
:1043000000F058FF082CF7D170BD00BFCC7F000033
:104310002DE9F041164F174E3D46002456F8040B88
:10432000012100F003FF013455F8040B002100F0D7
:10433000FDFE082CF2D10A2501242046FFF7D8FF04
:10434000012000F0DFFDB846002658F8040B00F00D
:104350005BFFA04209D10136082EF6D1013DC4F120
:104360000104EAD10120BDE8F0810020FBE700BF95
:10437000EC7F0000CC7F000037B50F4D0F4C2B6851
:1043800013F0010F04D100F08BFD012320602B609E
:1043900000F086FD2368C01AB0F5967F0AD300F0BE
:1043A0007FFD074B2060002200930648082311463A
:1043B00000F0B8FC03B030BD840700208C0700205B
:1043C000000000202C010020F8B5642000F09AFDC8
:1043D00001210D2000F0AAFE214E224F224D05247E
:1043E000002332460321384600F0C2FB88B129463B
:1043F0001E4800F051FF1E491C4800F04DFF64208C
:1044000000F080FD013CEBD14FF4FA70FFF74AFF5A
:10441000FAE7FFF77DFFE8B901210D2000F0CAFEA1
:10442000642000F06FFD00210D2000F0C3FE642029
:1044300000F068FD01210D2000F0BCFE642000F0BA
:1044400061FD00210D2000F0B5FE4FF47A7000F000
:1044500059FDE1E7BDE8F8400649044800F01CBFFB
:1044600020A107002C010020807F0000240A0020EA
:10447000997F0000B47F000008B5FFF77DFFBDE81D
:1044800008406420FFF70EBF024B4FF4C072C3F820
:10449000482670472C0100200B7B802BF0B567D895
:1044A0004B7B402B64D88B7B402B61D8CB7B402B44
:1044B0005ED80B7C402B5BD84B7C202B58D88B7C58
:1044C000202B55D8CC7C202C52D82344202B4FDCD9
:1044D0000B7D402B4CD84B7D402B49D88B7D402BFE
:1044E00046D8CB7D402B43D88B6883620C7B14600D
:1044F00003EB8405C5624D7B022616FB054503EBE5
:104500008504156004630C7D8F7BF440344407FB05
:10451000045403EB8405146045634D7DCF7BF54067
:10452000354407FB054503EB8504156084638C7DEA
:104530000F7CF440344407FB045403EB84051460FF
:10454000C5634D7C16FB054603EB860316600364CA
:10455000CC7D8B7CA408023403FB04641460CE7D04
:10456000CB7CB608023603FB064414600120F0BD84
:104570000020FCE7082801D8087008E010F00302CA
:104580000FD11B284FEA900303D806330B7001208C
:10459000704713F0030304D14F2802D800090B30F1
:1045A000EAE700207047000030B50D4693B004469E
:1045B00028B90B4B0B4ABE210B4802F023FC19B95A
:1045C0000A4B084ABF21F7E74422002101A802F064
:1045D0008BFC2A46214601A8FFF75EFF13B030BDD1
:1045E0000C80000023820000108000007C8000000E
:1045F0004268916908B521F00203C90706D4054B4A
:10460000054A06484FF4B47102F0FCFB43F0020384
:10461000936108BD818000004A8200001080000084
:1046200042689369012923F4407304D0022905D01C
:1046300001B99361704743F48073FAE743F4407320
:10464000F7E743689B6913F4807004D013F4007F8C
:1046500014BF0220012070474268D2F8C03043F0F6
:104660008043C2F8C0307047416800238A69D00790
:1046700007D513B922F001028A610133B3F5806FC7
:10468000F4D17047416801228B6913F0010006D113
:10469000002AF9D043F001038B610246F4E770472A
:1046A000F7B50C46064628B9AA4BAB4AC821AB4819
:1046B00002F0A8FB19B9AA4BA74AC921F7E74D6830
:1046C0001DB9A84BA44ACA21F1E78B681BB9A64BB8
:1046D000A14ACB21EBE74422002102F005FC01AA0C
:1046E00021463046FFF7D8FE002800F02081A4467E
:1046F000BCE80F0037460FC7BCE80F000FC79CE8A7
:104700000300012387E80300AB613046FFF7BAFFDF
:104710003046FFF76DFF2B23C5F880306FF0604304
:10472000C5F89030A06900236B65C5F8E030AB6533
:10473000EB656FF440132B65002800F0FA80B4F8A5
:104740001CC0ACF10303FE2B00F2F380A27F571EC6
:104750003B0600F1EE8094F82630013B190600F18B
:10476000E8806244424302F1B76101F558415200CA
:10477000B1FBF2F2013AB2F5007F80F0DC80ACF1DF
:10478000020C5B06216A43EA0C233B4343EA0243E3
:104790008842EB6100F2D18094F82400C31E1E2BE6
:1047A00000F2CB8094F82520531EDFB20F2F00F2C9
:1047B000C48094F82770013F5FFA87FCBCF1070FB3
:1047C00000F2BB800244514301F1B76202F5584246
:1047D0004900B2FBF1F20192013A1F2A00F2AF80C8
:1047E00002381B0143EA00233B4343EA0243EB60E8
:1047F000227B338D43EA0243C5F88430637BB28D5C
:104800001B0403F4FE031343C5F88830A37B328EE8
:104810001B0403F4FE031343C5F8A030E37BB28E00
:104820001B0403F4FE031343C5F8B030338FC5F8FF
:10483000AC30637CB28F1B0403F47C131343C5F8C4
:10484000F030A37CE27C1B04120602F07C5203F4DD
:104850007C131343B6F840201343C5F8C030207DC5
:104860000DF10301FFF786FE00286AD09DF80330A2
:10487000607D072B8CBF03F0070300230DF10301BC
:104880000193FFF777FE00285DD09DF80330019A71
:10489000A07D072B86BF1B0103F070030023134389
:1048A0000DF103010193FFF765FE00284DD09DF83F
:1048B0000330019A072B86BF1B0203F4E063002339
:1048C0001343C5F8BC30E07D01930DF10301FFF700
:1048D00051FE00283BD09DF80330072B8CBF03F01E
:1048E00007030023C5F8C830227BB36A002103EB1D
:1048F0008202934215D3F36A627B002103EBC2026A
:10490000934211D34FF0FF33C5F89830C5F89C306F
:10491000AB6923F4407343F48053AB61002003B0D0
:10492000F0BD43F8041BE4E743F8081BE8E7012067
:10493000F5E70220F3E70320F1E70420EFE7052085
:10494000EDE70620EBE70720E9E70820E7E7092085
:10495000E5E700BFAD8000003A8200001080000053
:104960000C800000B1800000BB8000004268136929
:1049700043F01003136170474268136923F010037A
:10498000136170472DE9F74F9946C37D9342064660
:104990008B46174606D22C4B2C4A2D4840F2072155
:1049A00002F030FAD0F80480FFF74BFE0DF107015A
:1049B00082461046FFF7DEFD08B98DF80700F37C4C
:1049C000002B3FD0D8F8C4309B023BD4F47DD8F8FC
:1049D000C450336C1BF0804F4FEA940408BF1D494C
:1049E000C5F3044504F1020405FB04F41ABF2BF0DF
:1049F000604B4BF0804101EA8B4143F824109DF855
:104A00000710BAF1010F4FEA014103EB840001F4F2
:104A1000702111D141F4001141603A4649460830F5
:104A200002F054FA0123AB40C8F8E030C8F8D030A7
:104A3000284603B0BDE8F08FBAF1020F08BF41F479
:104A40004011E9E7FF25F3E7E98000005B82000001
:104A5000108000000000FC1F38B50129049C06D915
:104A60002C4B2D4A4FF415712C4802F0CBF95D0008
:104A700007D5457B95420DD8294B274A40F2552151
:104A8000F2E7057B9542F7D9B3F5006F07D2B4F58D
:104A9000006F0BE023F08045B5F1005F04D3214B9C
:104AA0001D4A40F25721DFE7B4F1005F2CBF00251B
:104AB000012525B91C4B184A40F25921D4E713F0BF
:104AC000804F12B213D0C06A002900EBC20514BF98
:104AD0004FF080414FF0005123F0604324F06044D8
:104AE0000B4344F0004440F832306C6038BD856AB6
:104AF0000E480029C4F30A0414BF4FF080514FF050
:104B0000006100EA03430C431C4344F0004445F8B1
:104B10002240EBE7D3810000758200001080000086
:104B2000268100008A810000EA8100000000FF0762
:104B300013B572B1447B944212D923F060426FF0F6
:104B4000204300920A460021FFF786FF002002B0B2
:104B500010BD027B22B1C3F30A0240F2FF73F0E7FB
:104B60000120F4E71346C2F38072FFF7E1BF0000B3
:104B7000F0B5154641F21672A0F850265E4A80F84C
:104B80004C168BB040271E460023044680F8443064
:104B900080F852361060194680F84F76142203A828
:104BA00002F0A2F94FF08443019340F60803ADF8F8
:104BB0000C3004238DF810308DF813308DF81E3032
:104BC0000C224E4B8DF80E200993ADF81C2004F1F9
:104BD00048034B4A029344F240014FF48003ADF87E
:104BE00016108DF81470009706950895936094F848
:104BF000523694F8510602EBC313012181405960EB
:104C000094F8523694F8501602EBC3130B44032069
:104C100083F8400094F8521694F8513602EBC11113
:104C2000194481F8400094F8521694F8503602EB7B
:104C3000C11202EB5302882382F83030314B4122FB
:104C4000C3F8EC20304A136943F40033136104F5D0
:104C5000C9616846FFF7A8FC002841D02B492C48C1
:104C600000F01AFB69462046FFF71AFD054670BBA7
:104C70002849274800F010FB2046FFF7EDFC94F888
:104C80004D36BB422ED12046FFF770FE31462046FE
:104C9000FFF7C6FC2046FFF7E7FC94F84C36032BE1
:104CA0000AD14FF0804200212046FFF75BFF00222F
:104CB00001212046FFF756FF63689B69DB0715D487
:104CC0001549134800F0E8FA28460BB0F0BD134927
:104CD0000F4800F0D4FA0E480A22294600F011FBD2
:104CE000FF25F1E72046FFF747FECFE70C490848CC
:104CF00000F0D2FAF4E700BF900700200C0404048F
:104D000000800041001C0040000800408982000033
:104D1000240A0020A5820000CC820000B582000099
:104D2000DD82000010B514461A4643689B69DB0714
:104D30000AD40CB141F08041029BFFF723FEFF280B
:104D40000CBF0220002010BD0520FCE7014801F047
:104D500091BD00BF98070020FFF7F8BFFFF7F6BF2F
:104D6000FFF7F4BF13B512491248134C00F006FBCD
:104D70001249134800F002FB1249134800F0FEFAF2
:104D80001249204600F0FAFA4FF08641104800F030
:104D9000F5FA1049104800F0F1FA01230022CDE99C
:104DA000003221460D4801F003FD02B010BD00BFE6
:104DB00000300040D4090020F809002000340040F1
:104DC000E009002000200141EC09002000400141E1
:104DD000040A002000040043100A00209807002065
:104DE000FEE70000024B1B6803B11847704700BF85
:104DF0001C0A0020194B1A481A4A834210B51DD0CC
:104E00009A421DD0144619468142224611D383424C
:104E100019D1154AD2F8883043F47003C2F88830AB
:104E2000BFF34F8FBFF36F8F00F08CF801F0FEFDE2
:104E3000FEE7126841F8042B0434E5E71946E6E77B
:104E400019461A46E3E78A42E3D0084B084A002194
:104E500001E043F8041B9342FBD3DAE70000002093
:104E6000100100207C88000000ED00E0100100200F
:104E70002410002008B500F062F818B9BDE8084019
:104E800000F054B808BDFFF7ADBFFFF7ABBFFFF7A9
:104E9000A9BF0000014B1860704700BF1C0A00202A
:104EA000014B1868704700BF200A0020124A1349BE
:104EB000F0B5134D97684B682E68C3F38063906814
:104EC0004C68D5F800C0C4F38064A3420FD1664596
:104ED0000DD187420BD3526842F22220D21B50439D
:104EE00033444FF47A72534303EB1050F0BD6646DF
:104EF00023460746E3E700BF10E000E000ED00E0D6
:104F0000200A002038B5044670B1FFF7CFFF0546F0
:104F100000F014F8FFF7CAFF401BB0F57A7FF7D313
:104F2000013C05F57A75F5D138BD0000024A1368D9
:104F30000133136000F0FEB9200A00207047002002
:104F4000704700006B4A13889BB213806A4B1A7833
:104F500042F001021A705A68D207FCD44FF48272F0
:104F6000DA625A689006FCD44FF4827262491A627F
:104F70004A6812F00402FBD1604B1A77604A9A62C9
:104F800093F82C2012F01002FAD183F820205B4B0A
:104F90001A4693F82C104907FBD4197F41F00201FF
:104FA000197792F82C309807FBD4536A5362534B0D
:104FB0001A4693F82C100907FBD4982183F8201087
:104FC0001369D805FCD54C4B4E4A5A635A681106F2
:104FD000FCD44522C3F88420484B77225A63DA6B0D
:104FE0005207FCD44FF400629A63022283F8302007
:104FF000424B1A6C9007FCD51A6CD107F9D53E4A82
:105000004521C2F8881063229A643C4B1A6D5207FE
:10501000FCD44FF40062DA64022283F84420374B58
:105020005A6D9007FCD55A6DD107F9D5324B40F235
:1050300006325A625A681207FCD44FF442729A62DE
:105040005A68D006FCD4304A1A632B4B1A4659686A
:105050004906FCD440F207311962536813F0040387
:10506000FBD12A4901224A7101F58051886963F315
:105070008200886172B6264B9A6062B6254AD36870
:1050800043F08073D360244A136843F00103136034
:105090004FF08013214A1B6803F003019184C3F38E
:1050A0000222C3F34211120142EA0122C3F3820138
:1050B0000A431B49A1F84820C3F38252C3F3C241FB
:1050C000120142EA0122C3F302431343154AA2F834
:1050D0004830154B1A6802F01F01C2F3441343EA2B
:1050E0008113C2F3822243EA02334FF082421385D6
:1050F000704700BF00400041001C0040001000400D
:10510000000001040601300006030400000800400E
:1051100000600041F0ED00E0001000E000200042DF
:10512000001C00430020004384008000182310B5B9
:105130001F4C5843221892F90830013313D052689B
:1051400023560120904003290DD8DFE801F0022505
:105150000D19DB0103F1824303F500431A440221D8
:1051600082F84010586010BDDB0103F1824303F563
:1051700000431A44062182F8401058609861F2E713
:10518000DB0103F1824303F500431A44062182F850
:10519000401058605861E6E7DB0103F1824303F5F4
:1051A00000431A44022182F840109860DBE700BFF8
:1051B000FC820000182330B5114D58432B1893F989
:1051C0000820013219D05C682B56D80100F18243C7
:1051D00003F5004301229D68A240154209D12344F2
:1051E0000D1E93F8404018BF012565F3820483F833
:1051F0004040044B034409B95A6130BD9A61FCE751
:10520000FC8200000080004118230A4958430A1814
:1052100092F9083001330BD00B56DB0103F18243C6
:1052200003F50043186A5368D84000F00100704746
:1052300000207047FC820000F8B505460E46174670
:105240000024BC4207D02B68315D1B682846984774
:1052500008B10134F5E72046F8BD13B50446084609
:1052600059B1019102F0F0F9236801995B68024697
:10527000204602B0BDE81040184702B010BD08B586
:10528000FFF7EBFF08BD000008B50249FFF7E5FF97
:1052900008BD00BF8C86000038B50546FFF7DDFF6E
:1052A00004462846FFF7F0FF204438BDF0B58BB028
:1052B00000238DF82430012A98BF0A2209ACB1FBE3
:1052C000F2F602FB1615EBB2092D0F4694BF3033F0
:1052D0003733DBB2BA4204F8013D3146EFD92146FB
:1052E000FFF7BBFF0BB0F0BD10B42AB902685DF840
:1052F000044B1268C9B210475DF8044BD2B2FFF7F5
:10530000D5BF38B50546FFF7EFFF04462846FFF73F
:10531000BBFF204438BD0000014B1860704700BF40
:1053200008000020024B4FF0FF321A60704700BFA8
:10533000080000200C4A1368591C13D0013B13606D
:1053400083B972B6094B0A4A1A60BFF34F8F0949F5
:10535000094BCA6802F4E0621343CB60BFF34F8F7E
:1053600000BFFDE7704700BF08000020FCFF0220DF
:10537000EF6916F000ED00E00400FA05012201607B
:105380000271704770B506683568022B45EA827273
:1053900014BF4FF08074002444EA020434600068B3
:1053A0009DF81040426801F0070141EA841114BFE2
:1053B0005B0300230A431343436070BD10B50368C9
:1053C00012051C6802F440120904224301F4403122
:1053D0000A431A600268536843F44033536010BDB7
:1053E0000268136843F00103136003681A68D10769
:1053F000FCD4DA69D207F9D470470268136843F025
:10540000020313600268D3699B07FCD470470368EA
:105410001A7E12F0010F03D11A7E12F0020FFAE782
:105420007047036800225A8370470368187EC0F3F0
:10543000800070470368187EC00970470268137EB9
:1054400043F08003137670470368588BC0F3400025
:1054500070470268538B43F002035383704703681D
:10546000187E00F0010070470368986AC0B2704768
:1054700003681A7ED207FCD5996201207047036841
:1054800001229A757047036801221A75704700005F
:105490000368124A934213D002F58062934211D0FE
:1054A0000F4A934210D002F5005293420ED0B3F14E
:1054B000864F0DD00B4A93420CD1052040B2704765
:1054C0000020FBE70120F9E70220F7E70320F5E7DA
:1054D0000420F3E74FF0FF30704700BF003000407A
:1054E0000020014100040043052A30B51FD0244CA0
:1054F00009010C44E3B12179224C203154F82150A8
:105500006FF3861544F8215054F821506D06FBD4F2
:1055100003B102711B4C6AB9402244F821200BB13F
:10552000194B8360174A52F821305B06FBD530BD1A
:105530006179E1E7012A06D1412244F82120002BBC
:10554000F0D0124BEDE7022A06D1422244F8212086
:10555000002BE7D00E4BE4E7032A07D1432244F89F
:105560002120002BDED04FF40043DAE7042AD9D102
:10557000442244F82120002BD4D0064BD1E700BFB1
:1055800090860000001C0040000E2707006CDC0223
:1055900000E1F505001BB7002DE9F3410546FFF7D3
:1055A00077FF011E3DDB1022062312FB01331E4A4A
:1055B0001E4EDFF87CC01A440424E020012732F993
:1055C000028BB8F1000F1FFA88F324DB4FEA581E54
:1055D0004FEA8E0E0EF1604E0EF5614E03F01F0382
:1055E000E04407FA03F3CEF8803188F80003CEF8E0
:1055F0000030013C14F0FF04E1D12A79019101232C
:105600002846FFF771FF2A790199234602B0BDE8C9
:10561000F041FFF769BF03F00F03043B33441876F2
:10562000E7E702B0BDE8F0819086000000ED00E001
:1056300000E100E0F8B504460F4616461D46FFF7A8
:10564000ABFF2046FFF7CCFEBB007103226803F0DE
:105650001C0389B20B43136023688422012F9A75BF
:1056600013D1012E0CBF10230823084A6B43B2FB51
:10567000F3F32268918963F34F3191812268918914
:10568000C3F3CC0363F30C019181F8BD0060E31612
:105690003F20704707B503688DF807105B6801224B
:1056A0000DF10701984703B05DF804FB0069022182
:1056B00000F0DEBB0069032100F0EEBB10B513461D
:1056C000074AD27904461AB901236360002010BD4D
:1056D0000A460069032100F0CBFC0028F4D0F6E76D
:1056E0001000002010B5054C2368591C04D1036834
:1056F0005B69984703462060184610BD5C00002097
:10570000064A1368591C03D10069022100F0A0BCAD
:105710004FF0FF3111601846704700BF5C00002059
:1057200003780349023303704222024800F03ABD75
:1057300018000020400A002010B502784378A12A02
:1057400008D1212B1BD116491648072200F02AFD4B
:10575000012010BD212A12D1202B12D1104911484D
:10576000072200F0D9FB0E4B1A68B2F5966F0ED1E6
:10577000D87910F001040AD1FA20FFF7CDFD0020FE
:10578000E7E7222B06D1064B8278DA71EBE7FFF7C9
:10579000C9FDF4E7232BF2D1034B42881A60EEE7F0
:1057A00010000020400A00200C000020054B0022C1
:1057B0004FF47A71C3E90121034919600349196162
:1057C0001A767047240A0020F8860000400A00205C
:1057D000704710B501F1080400F00F02D3B2092A96
:1057E000CCBF3733303304F8013DA1424FEA1010EB
:1057F000F2D110BD10B50446806901F05FFBA06ACC
:1058000001F05CFB204610BD10B50446FFF7F2FF27
:10581000204601F02DF9204610BD00000329F0B408
:1058200007D12C4B53F82000F8B10368F0BCDB68BB
:10583000184782291BD12849284AC3B201EB4315D6
:105840000324AE6964F31E76AE6102EB80100A6831
:1058500068610833580102EB4313197941F0800164
:105860001971135C64F306131354F0BC70470029DC
:10587000FBD1194DC2B205EB421303279C6867F3B5
:105880001E749C60164C083204EB80105860540162
:105890002868055D012666F302050555D3F818C092
:1058A0000E4D67F31E7CC3F818C05D61055D66F39D
:1058B0000615055500EB42129868402464F39B30AE
:1058C0009860986861F30D00986053792343537191
:1058D000CBE700BF440A0020F80E00206C0A00202D
:1058E0002C0C0020EFF3108202600122426072B69D
:1058F0007047036813B962B6BFF36F8F704737B54F
:10590000056904466846A5B9FFF7ECFF019B013B1A
:1059100003D394F82450EDB2F9E768460193FFF7FA
:10592000E8FF15B9002003B030BD206AE369C01A52
:10593000F9E7FFF7D7FF019B0025013B03D394F85C
:105940003450EDB2F9E768460193FFF7D2FF002D1E
:10595000E8D0206BE36AEAE74368017A1A6830B559
:1059600002EB411403EB411194F8095145F0010594
:1059700084F809518C68C56865F39B348C60017AA2
:1059800003EB411399686FF30D019960037A0833B3
:1059900002EB43131A7942F040021A7130BDF7B599
:1059A000056904460E4617466846002D41D1FFF7AB
:1059B00099FF019B013B5A1C0CD094F82420591EDE
:1059C00032B968460193FFF794FF284603B0F0BD53
:1059D0000B46F0E768460193FFF78BFFAF42E369A0
:1059E00009D0226A9A4206D9A269591CE161D35CA6
:1059F00073550135F2E7226A9A42E6D10026012367
:105A0000E66123616846FFF76DFF3746019B013B66
:105A1000581CD6D084F8246094F83520591E32B131
:105A200084F8357020460193FFF796FFEEE70B46AA
:105A3000EEE7FFF757FF019B013B591C08D094F894
:105A40003420591E02F0FF05002ABAD00B46F4E7B5
:105A500068460193FFF74DFF0025BD42E36A02D07F
:105A6000226B9A421AD8226B9A42AED10026E66285
:105A700026616846FFF736FF3746019B013B5A1CFB
:105A80009FD084F8346094F83520591E6AB184F8A8
:105A9000357020460193FFF75FFFEEE7A26A591CBD
:105AA000E162D35C73550135D7E70B46E7E74368FE
:105AB00037B5027A1968044602F1080001EB40117B
:105AC000C879C00724D5520101251344CD719A68C5
:105AD0006169C2F30D0209BB2262226A002A3CD02E
:105AE000A26A656168465A60FFF7FCFE019B013BB4
:105AF000591C2ED084F8245094F83420591E02F0FA
:105B0000FF003AB184F8355068460193FFF7F1FE83
:105B100003B030BD84F835000B46E9E72263226B01
:105B2000DAB100226261A2695A606846FFF7DAFEC4
:105B3000019B013B5A1C0CD084F8345094F824206B
:105B4000591E02F0FF00002ADCD184F835000B4614
:105B5000F0E768460193FFF7CCFE2046FFF7FCFE16
:105B6000D6E713B500230C460DF107008DF807307A
:105B7000FFF7D6FD23681844206001F0F7F80DF117
:105B8000070101F0C3F82368184420609DF807005E
:105B900002B010BD03290BD10C4B1B6893F8642194
:105BA00042F0800283F86421022283F86721704763
:105BB00001290AD1054B1B6893F8242142F0800289
:105BC00083F82421022283F827217047F80E002051
:105BD00038B5354B354D9A6942F001029A611A6920
:105BE00042F480621A61324B93F8582042F001026D
:105BF00083F8582093F83C2002F0F00283F83C2010
:105C000093F83C2042F0070283F83C2093F8592097
:105C100042F0010283F8592093F83C2002F00F0271
:105C200083F83C2093F83C2042F0700283F83C203B
:105C3000204B4122C3F8A82004461F48FFF72AF949
:105C4000284601F0A5F8284601F0BAF82B681A7822
:105C50006FF3C7121A701A7842F004021A701A8988
:105C60006FF383021A81154A002182F8501382F8DB
:105C7000511382F8521382F853134FF4803191601C
:105C80004FF4003191604FF4802191604FF4002176
:105C900091601A7842F002021A709A789207FCD446
:105CA0000123237038BD00BF00080040F80E00201B
:105CB00000800041001C00401966000000E100E087
:105CC000007880B1084B1B681A896FF300021A81B3
:105CD0001A8B42F008021A831A8B42F004021A83CC
:105CE000024B00221A607047F80E0020F00E0020D0
:105CF0000E4B9A696FF30D029A611B68022283F8BA
:105D0000072193F8052142F0800283F8052193F8DA
:105D100007219207FBD54FF082439A7A61F306027E
:105D20009A729A7A42F080029A727047F80E0020B6
:105D30000B7907B56BB90846FFF7FEFC18B10120D7
:105D400003B05DF804FB0A4B9A6960F30D029A6197
:105D5000F5E7019101F00AF8019900F0F8FF002839
:105D6000EDD1034B9A6960F30D029A61E8E700BF39
:105D7000F80E0020832A2DE9F8430D46114616D16E
:105D80002F4A3049EBB202EB43100326846966F3D5
:105D90001E748461083301EB85155B011168456150
:105DA000CA5C042060F30612CA54BDE8F883022AD4
:105DB00041D1254E56F8250010B103685B6998471C
:105DC000382000F053FEDFF87880204B03604FF45A
:105DD000807900230362044680F82430C0E90393ED
:105DE0000363436180F83430C361C36280F83530A7
:105DF000C0E90185484601F059F80746A0614846C8
:105E000001F054F8EBB208EB4311A0628A684FF03E
:105E1000030C6CF31E728A600833D8F800005B0133
:105E2000C25C6CF30202C2544F602046FFF794FD3F
:105E300046F82540B9E72846BDE8F843FFF7EEBC31
:105E4000F80E00206C0A0020440A00201C87000085
:105E500070B5064D0646012455F824202AB1214686
:105E60003046FFF787FF0134F6E770BD6000002081
:105E7000074B53F8210010B103689B681847054B86
:105E8000C9B203EB41118868C0F30D00704700BF31
:105E9000440A0020F80E002010B50C46FFF7E8FF7A
:105EA00058B1064BE4B21B68083403EB4414637921
:105EB00043F0800363710223E37110BDF80E0020EC
:105EC000134B30B5CAB203EB8111124B03EB4210F6
:105ED00008244160816864F39B31816081686FF3BD
:105EE0000D01816018685501224400EB42110C79C4
:105EF00044F040040C718C796406FCD500EB42122E
:105F0000D179C907FCD52B449868C0B230BD00BF19
:105F10002C0C0020F80E002038B50D4B15461A68E1
:105F200092F8043143F040030C4682F8043100211A
:105F3000FFF7C6FF074BA84228BF28462146254445
:105F4000A94204D013F8012B01F8012BF8E738BD62
:105F5000F80E00202C0C002010B50C4BC9B24C01DF
:105F600003EB411123448A68C2F30D023F2A89BF23
:105F700088688A68403A62F30D0096BF6FF30D029D
:105F800088608A609868C0B210BD00BFF80E00201B
:105F90002DE9F0471C462A4B1B6807460E469146E2
:105FA000002B4AD0274B53F8213043B11A6855686B
:105FB0004946224618462B46BDE8F0471847FFF7EA
:105FC00057FF844204D931463846FFF751FF044653
:105FD000DFF878A031463846FFF7BEFFDAF8003028
:105FE0001949F5B203EB451301EB861193F808212B
:105FF00042F0010283F80821484622464FEA45183C
:1060000000F064FFB4B131463846FFF731FF88B97C
:10601000DAF80030083503EB451543442A7942F09D
:1060200040022A710122EA7193F8092142F001022B
:1060300083F809212046BDE8F0874FF0FF34F9E7E7
:10604000F00E0020440A00202C0C0020F80E002046
:1060500007B501230DF10702FFF79AFF01280CBFD6
:106060009DF807004FF0FF3003B05DF804FB00001F
:106070002DE9F74F1D46344B1B680F461146002B88
:1060800039D0B5F5804F36D8304B5FFA87FA0AF130
:10609000080903EB87134FF000084FEA491B65B36B
:1060A0002B4C2C48266806EB0B029279D20928D09B
:1060B000294ADFF8ACC01268B2FBFCFC274A02FB9D
:1060C0000CF24FF0170CB2FBFCF206EB491C9CF8EB
:1060D00007E01EF0020F14D110F807E0BEF1000F28
:1060E00001D1013AF3D20123C35504EB4A14A36949
:1060F0006FF30D03A3614FF0FF38404603B0BDE8D6
:10610000F08F402D4FF00002C2552A46184628BF96
:106110004022CDE9001200F0D9FE04EB4A14019AA6
:1061200060610346A06906EB491662F30D00A061A9
:106130000220F0717079009940F0800070719044F5
:10614000AD1A1144ABE700BFF00E00206C0A00202E
:10615000F80E0020610A0020880000207011010064
:1061600040420F0038B51D460C4B0C4603EB841320
:10617000114618462A4600F0A9FE03460848E1B237
:1061800000EB411128464B618B696FF39B338B61A8
:106190008B6965F30D038B6138BD00BF6C0A00206D
:1061A000F80E0020114B1B782DE9F0410746884678
:1061B000154653B90E4B1C7854B10E4E0E48348818
:1061C00020442C4400F082FE34802846BDE8F08153
:1061D0001646002EF9D0334608EB0402002138465B
:1061E000FFF7C0FF0444361AF3E700BFEC0D0020B0
:1061F000ED0E0020EE0E0020ED0D0020F0B5012A7E
:1062000083B00D4600AF14462CD9D31D03F4FC73A4
:10621000ADEB030D69462846796001F015FA0130AF
:106220004000032379688DF800008DF80130013DAE
:1062300002220026A2420CD215F8010F48B1531CCD
:10624000DBB29C42885403D0CE54931CDAB2F1E7FF
:1062500022460548FFF7A6FF003818BF01200C377B
:10626000BD46F0BD0020FAE7400A00202DE9FF41BD
:10627000DFF8888000250E46012769460446009510
:1062800088F80070FFF76DFC40F20923ADF8043088
:10629000A0238DF80B30FA238DF80C30009B8DF87D
:1062A0000A500933092E8DF80970ADF806308DF8C3
:1062B000080088F8005008D1324601A92046FFF7AF
:1062C00071FF012004B0BDE8F081DFF83480094E91
:1062D0000095092201A9204688F800703580FFF753
:1062E00061FF69462046FFF73CFC3288024988F886
:1062F0000050E3E7EE0E0020ED0D0020EC0D002035
:10630000ED0E0020F0B5CD78022D93B006460F4675
:1063100008D1C9882C48FFF7A9FF003818BF012011
:1063200013B0F0BD00F022FD394600F002FD041E5E
:1063300003D0CCBF01200020F2E7012D0AD1FA885A
:10634000112A3CD82149D2B262B13046FFF72AFF68
:106350000120E5E7032D34D1BB782BB9FA88032A55
:106360002AD91B490A78F0E7022B05D1BA791949D5
:106370003046FFF743FFD3E7012B02D1BA79164924
:10638000F6E7032B1DD1154B01A91868FFF721FA79
:10639000134B03A91868FFF71CFA124B05A91868DC
:1063A000FFF717FA104B07A91868FFF712FABA7926
:1063B0008DF8244001A9DBE70549D2B2C4E70349BF
:1063C000D0E72046ACE700BF400A00205C87000011
:1063D0004C8700003487000050870000FC6180007B
:1063E00010608000146080001860800037B54B7822
:1063F0000C460B2B0FD8DFE803F0061E0E2F0E44C1
:1064000048764B4E6A6D097841B9ADF80410022305
:1064100001AAFFF7A7FE012003B030BD0023ADF8AD
:106420000430324B1B78012B08BF8DF8043001AAD1
:1064300002230021EDE78B78012B4FF0000303D1FD
:10644000ADF804302A4BEDE7284A1370294A9169C8
:1064500063F30D019161DEE78C78012C06D1244BAA
:1064600000211C708DF804102346D1E7002C3AD18E
:106470001E4B012018701F4B9A6964F30D029A613C
:10648000CAE78978FFF734FCC5E7FFF73BFFC3E7AE
:10649000194A0123CDE70B7813F01F0523D1FFF72D
:1064A000D7FC154BA2781A60124A136893F8291189
:1064B00041F0020183F8291193F8491141F00101DB
:1064C00083F84911936965F30D039361A3E70B4AC0
:1064D0000123AEE7094B8A781A60064B9A696FF37D
:1064E0000D029A6197E7002096E700BF600A00203E
:1064F000680A0020F80E0020F00E0020F40E0020A4
:106500002DE9F8433F4B1C780746002C6BD13E4DDC
:106510002B689B8B19070ED521462046FFF77EF985
:106520002B6893F8092142F0100283F80921374AB9
:10653000146008229A832B689A8B520744BF042266
:106540009A8393F80721D60626D5102283F80721CF
:1065500093F804212E4942F0400283F804210B787D
:1065600013F0600F384640D1FFF740FF2B6800283A
:106570003ED093F8052142F0800283F8052193F87C
:106580000721540608D5402283F8072193F80821F3
:1065900042F0400283F808212B68DFF878901E8CC7
:1065A000002406F0FE064FF00108E1B2DEB146FA23
:1065B00004F3D80714D52B6804F1080203EB421347
:1065C000DA79D20702D4DB799B0705D559F8240084
:1065D000A0B103681B68984708FA04F326EA03068B
:1065E0000134092CE1D1BDE8F883FFF7A1FBBDE739
:1065F0004FF08242202182F80511C0E73846FFF7AC
:10660000C9FAE9E7ED0E0020F80E0020F00E002098
:106610002C0C0020440A00200148FFF771BF00BF86
:10662000400A0020024B4FF082421A60704700BFC0
:10663000F80E002001207047036840F213421B6AE5
:106640001847D0F81821D0F814319A421DBFD0F85D
:106650001831C018007D4FF0FF30704710B5044668
:106660000069FEF7BDFE0023C4F81431C4F81831E8
:10667000C4F81C32C4F8203210BD01F47061B1F5C9
:10668000007F08D0B1F5407F07D0B1F5807F14BFFF
:10669000002005207047062070470720704701F052
:1066A0000F01012904D0022914BF022001207047E4
:1066B000002070472DE9F3410446334E90F8240240
:1066C000182707FB0063884693F90810154600F069
:1066D000C3FA94F8250207FB006393F9081000F051
:1066E000BBFA94F82732022B09D194F83802FF281C
:1066F00005D007FB006797F9081000F0ADFA94F891
:106700002802FF2817D00121FEF710FD94F8282257
:1067100018235343F118F2561C4B4968D201134415
:10672000C4F82C321A4B134401228A40C4F8303288
:10673000C4F834221A600122434611462069FEF74C
:1067400079FF29462046FFF798FF2946064605F0BF
:10675000F0052046FFF7A3FFA5F130025542554151
:1067600003463146206900950122FEF70BFE2069A1
:1067700094F8262294F82712FEF720FE206902B032
:10678000BDE8F041FEF739BEFC82000018800041F0
:106790001480004110B54FF480720446002100F0CF
:1067A000A3FB0023C4F800312046C4F8043110BD17
:1067B000F8B516461D4600224FF47A73C0E901234E
:1067C0000F4B044640F8143B0F46FFF7E3FF04F578
:1067D0008E70FFF7DFFF9DF8183084F826329DF8A1
:1067E0001C3084F82732FF23276184F8246284F860
:1067F000255284F8283284F838322046F8BD00BF8C
:1068000078870000D0F80031D0F80401181A48BF8A
:1068100000F58070704738B5044600F58E7528463F
:10682000FFF7F0FF0028FAD12069BDE83840FEF7F5
:10683000EEBD08B51430FFF7E5FF08BDD0F8002124
:10684000D0F804319A42A5BFD0F80031D0F8042125
:10685000D0F80431C3F1FF00AFBF8018D0F80001B9
:10686000181A00F1FF30704708B500F58E70FFF779
:10687000E5FF08BD10B504460069FEF7E5FD28B147
:106880002069FEF7F1FD2069FEF7E3FD2069FEF7C0
:10689000CCFDF8B12069FEF7E7FDD4F81431D4F847
:1068A00018210133DBB293421FBFD4F8142112190F
:1068B0001075C4F8143194F82832FF2B0AD004F173
:1068C0001400FFF7BBFF0928DEBFD4F82C32D4F840
:1068D00034221A602069FEF7C2FDE0B104F58E7023
:1068E000FFF790FF18B3D4F82022D4F81C322069A7
:1068F0009A421BBFD4F820321B194FF0FF3193F896
:106900001C111FBFD4F820320133DBB2C4F820328F
:10691000C9B2FEF7ADFD2069FEF78CFD58B12069C4
:10692000FEF78CFD2069BDE81040FEF77ABD2069B6
:10693000FEF7A9FDEFE710BDF8B5044600690D4666
:10694000FEF78DFD00283DD1244E254FD4F81C3292
:10695000D4F820220133DBB293421ED1EFF310832F
:10696000DB0711D47368C3F30803002BEED0103B90
:106970009AB2002BBBBF02F00F03043BDB199B193B
:10698000ACBF93F800331B7E2069FEF768FD00283A
:10699000DCD02046FFF76EFFD8E7D4F81C32D4F8DD
:1069A00020220133DBB293421EBFD4F81C221219FD
:1069B00082F81C51206918BFC4F81C32FEF75FFD35
:1069C0000120F8BD04F58E70FFF71CFF0028BBD135
:1069D00020692946FEF74CFDF2E700BF00ED00E01C
:1069E00000E100E038B5D0F81821D0F814319A420F
:1069F0001BBFD0F818311B184FF0FF351D7D1FBF8E
:106A0000D0F818310133DBB2C0F8183190F82832D1
:106A1000FF2B044607D01430FFF710FF0A28C4BF2D
:106A2000D4E98C321A60284638BD704708B500F0AA
:106A300021F800F017FAFFF7F8FF0120FEF762FADD
:106A40000848094CFFF7C4F80648FFF739F9FDF785
:106A5000BBFCFDF711FDFEF771FA002CF9D0AFF386
:106A60000080F6E7400A00200000000000F01EBA97
:106A700000F024BA404BF7B51B684FF47A72B3FBB1
:106A8000F2F3013BB3F1807F72D23C4A53603C4B3E
:106A9000E02183F823100720002191601060C022BC
:106AA00083F82320374B5A6942F470425A619A693D
:106AB00042F4FC429A61DA6942F07802DA611A6AB9
:106AC0006FEA92226FEA82221A6203F5A0534122F2
:106AD000C3F82021C3F8242103F14073009303F588
:106AE000806301936C460425022605274FF4C05CA1
:106AF00054F8043B1A8865F30A221A80DA8866F390
:106B0000C402DA801A6B1007FCD4DF721A6B5206CB
:106B1000FCD4A3F804C01A6B12F00402FBD19A72E1
:106B2000186B10F02000FBD119B300F031F8164BB0
:106B30004422C3F82821D3F828215006FBD5134A54
:106B400013469168C907FCD4117841F00101117016
:106B50009A68D207FCD400225A709A89022161F304
:106B60000B229A81DA8961F30B22DA8103B0F0BD3E
:106B7000FEE70121BCE700BF8800002010E000E034
:106B800000ED00E000080040001C0040002400432D
:106B90002E4B1A46196BC906FCD42D490B6BDB062C
:106BA000FCD401382A4B0A284CD8DFE800F0061B39
:106BB000212529324B363A483E00264BDA696FF3DD
:106BC0001342DA61DA6942F00402DA611F4A137A89
:106BD0006FF30303137292F808346FF3030382F820
:106BE000083470471B4BDA69012161F31342E8E76F
:106BF000184B0221DA69F8E7164B0321DA69F4E74A
:106C0000144BDA69042161F31342DA61DA690A4349
:106C1000DBE7104B0521DA69E7E70E4B0621DA695D
:106C2000E3E70C4B0721DA69DFE7117A042060F310
:106C3000030111721A7A60F303021A727047117A13
:106C40000220F4E7117A0320F1E700BF001C0043A3
:106C5000002000430018004038B51823294D03FBDD
:106C600000F2AC1894F90830B3F1FF3F48D00D2979
:106C700007DC002919DA01314FF0FF3018BF00207E
:106C800038BDA1F10E03DBB2032B04D80F2904D1C8
:106C90000021FEF74BFA0020F2E7102901D1022172
:106CA000F7E71129F7D10121F3E7AD566468164BD8
:106CB000ED0162082B4414F00100C9B21A4410D04F
:106CC00092F8300000F00F0040EA01112344C9B2ED
:106CD00082F8301093F8402042F0410283F84020BF
:106CE000D9E792F8305005F0F0052344294382F8A3
:106CF000301093F8402042F0410283F84020BFE773
:106D00001846BDE7FC8200000080004170B5446871
:106D10000E4600255CB1236831465B6820469847E3
:106D2000002802DBE4680544F4E74FF0FF3528460D
:106D300070BD38B544680D463CB1236829469B6850
:106D40002046984710B9E468F6E7204638BD38B5C4
:106D500044680D463CB1236829461B682046984785
:106D600010B9E468F6E7204638BD0000064A13680B
:106D700013F0010306D1054940F202404B600123A4
:106D80000880136001487047FC0F002000100020AD
:106D9000034610B553F8044B227842F001022270EA
:106DA00018464FF48072002100F09EF80346A27846
:106DB000D107FCD4A2789207F9D4636210BD000019
:106DC00010B50F4B02681B68108D03F01F041F2CB9
:106DD00008BF052464F38A10C3F344111085108D95
:106DE0001F2908BF1D2161F30400C3F3822310850E
:106DF000118D072B08BF032363F30E31118510BDDE
:106E0000840080001FB514461A46094B1B680546CE
:106E1000D8684CB1074B0091CDE9013406492B46A7
:106E200000F00EF800F0D8FC044B1C46F3E700BF5E
:106E30008C000020A4870000B18700008E8600002F
:106E40000EB403B5014603AB054853F8042B0068A4
:106E5000019300F025F902B05DF804EB03B0704730
:106E60008C00002070B50D4D0D4C641BA410002645
:106E7000A64209D10B4D0C4C01F076F8641BA4100E
:106E80000026A64205D170BD55F8043B984701364F
:106E9000EEE755F8043B98470136F2E7F000002092
:106EA000F0000020F000002004010020024B014609
:106EB000186800F071B800BF8C000020024B01463A
:106EC000186800F019B800BF8C0000200A449142F5
:106ED00000F1FF3300D1704710B511F8014B03F8F2
:106EE000014F9142F9D110BD02440346934200D1B3
:106EF000704703F8011BF9E737B5002948D051F86E
:106F0000043C0190002BA1F10404B8BFE41800F088
:106F1000DFFE204A01981368154633B96360146098
:106F200003B0BDE8304000F0D9BEA3420BD92168C0
:106F30006218934204BF1A685B68636004BF52180A
:106F400022602C60ECE71A465B680BB1A342FAD9C9
:106F500011685518A5420BD1246821445418A34246
:106F60001160DDD11C685B68536021441160D7E774
:106F700002D90C230360D3E7256861198B4204BF53
:106F800019685B68636004BF491921605460C7E7F2
:106F900003B030BD08100020F8B5CD1C25F0030566
:106FA00008350C2D38BF0C25002D064601DBA94203
:106FB00003D90C2333600020F8BD00F089FE21497D
:106FC0000A6814469CB9204F3B6823B921463046D5
:106FD00000F02AFB38602946304600F025FB431CB0
:106FE00023D10C233360304600F078FEE3E72368BA
:106FF0005B1B17D40B2B03D923601C44256004E0D2
:107000006368A2420CBF0B605360304600F066FE1E
:1070100004F10B00231D20F00700C21ACCD01B1A6C
:10702000A350C9E722466468CCE7C41C24F00304DB
:10703000A042E3D0211A304600F0F6FA0130DDD14B
:10704000CFE700BF081000200C1000209368013B20
:10705000002B10B4936008DA9469A34201DB0A297B
:1070600003D15DF8044B00F0F7BA1368581C1060A8
:10707000197008465DF8044B7047F8B506460F4690
:107080001446D518AC4201D1002007E014F8011BCA
:107090003A463046FFF7DAFF431CF3D1F8BD000053
:1070A0002DE9F04F0D469DB014469846064618B19E
:1070B00083690BB900F0B2FC894B9D421BD1756806
:1070C0006B6ED90705D4AB899A0502D4A86D00F080
:1070D00043FDAB891B0701D52B69EBB92946304627
:1070E00000F00CFBC0B16B6EDC070ED54FF0FF302B
:1070F0001DB0BDE8F08F7B4B9D4201D1B568DFE745
:10710000794B9D4208BFF568DAE7AB899805EDD465
:10711000A86D00F022FDE9E70023099320238DF8F4
:107120002930CDF80C803023DFF8C0818DF82A306B
:107130004FF0010923469A4613F8012B0AB1252A7C
:10714000F9D1BAEB040B0BD05B46224629463046F8
:10715000FFF793FF013000F0AA80099A5A44099280
:107160009AF80030002B00F0A28000234FF0FF328D
:10717000CDE905230AF1010A049307938DF85330F2
:107180001A935446052214F8011B584800F050FD8C
:10719000049AD8B9D10644BF20238DF85330130781
:1071A00044BF2B238DF853309AF800302A2B15D08A
:1071B000079A544600204FF00A0C214611F8013B73
:1071C000303B092B4ED9B0B1079214E0A0EB080375
:1071D00009FA03F313430493A246D2E7039B191D54
:1071E0001B680391002BBBBF5B4242F00202079376
:1071F0000793B8BF049223782E2B0CD163782A2BE7
:1072000035D1039B1A1D1B680392002BB8BF4FF0AA
:10721000FF3302340593DFF8E4A0217803225046BF
:1072200000F006FD40B14023A0EB0A0003FA00F095
:10723000049B03430134049314F8011B2C488DF87C
:107240002810062200F0F4FC00283FD0294B1BBB7D
:10725000039B073323F0070308330393099B3B4445
:10726000099367E70CFB02320C460120A5E70023D7
:107270000134059319464FF00A0C204610F8012BF3
:10728000303A092A03D9002BC5D00591C3E70CFB7E
:10729000012104460123F0E703AB00932A46164B75
:1072A00004A93046AFF300800746781CD6D16B6E38
:1072B000D90705D4AB899A0502D4A86D00F04DFC1E
:1072C000AB895B063FF512AF099811E703AB00935A
:1072D0002A46094B04A9304600F080F8E4E700BFD5
:1072E000388800005888000018880000E4870000F3
:1072F000EE870000000000007B700000EA870000BD
:107300002DE9F047164699468A680B69DDF820801A
:107310009342B8BF1346336091F8432007460C46AA
:107320000AB1013333602368990642BF33680233E0
:107330003360256815F0060506D104F1190AE368E3
:1073400032689B1AAB4226DC94F84320131E226855
:1073500018BF012392062BD404F143024946384654
:10736000C04701301ED02368E568326803F0060389
:10737000042B08BFAD1AA36822690CBF25EAE57586
:1073800000259342C4BF9B1AED1800261A34B5425B
:107390001AD1002008E00123524649463846C0472A
:1073A000013003D14FF0FF30BDE8F0870135C6E76B
:1073B000E1185A1C302081F84300224494F845100B
:1073C00082F843100233C7E7012322464946384674
:1073D000C0470130E6D00136D9E700002DE9FF476C
:1073E0000C469146277E0C99782F80469A4604F1E8
:1073F000430207D8622F0AD8002F00F0D880582FF8
:1074000000F0A38004F1420684F842703AE0A7F14C
:107410006303152BF6D801A050F823F07574000013
:1074200089740000057400000574000005740000F4
:1074300005740000897400000574000005740000E4
:10744000057400000574000095750000B974000013
:10745000777500000574000005740000B775000022
:1074600005740000B9740000057400000574000084
:107470007F7500000B681A1D1B680A6004F1420644
:1074800084F842300123A3E0256808682E0600F145
:1074900004030AD505680B60002D03DA2D236D4225
:1074A00084F843305E480A2319E015F0400F056860
:1074B0000B6018BF2DB2EFE70B682568181D086038
:1074C000280601D51D6802E06906FBD51D885448D1
:1074D0006F2F0CBF08230A23002184F8431066682D
:1074E000A660002EA2BF216821F0040121600DB921
:1074F000002E4DD01646B5FBF3F103FB1157C75DC7
:1075000006F8017D2F46BB420D46F4D9082B0BD15E
:107510002368DF0708D5236961689942DEBF3023FD
:1075200006F8013C06F1FF36921B2261CDF800A05F
:107530004B4603AA21464046FFF7E2FE01304CD1FC
:107540004FF0FF3004B0BDE8F087354884F845704F
:1075500023680E681F0656F8045B0E6014D5D90721
:1075600044BF43F0200323601DB9236823F02003A8
:1075700023601023B0E7236843F0200323607823BF
:10758000284884F84530E3E75E0648BFADB2E6E739
:107590001646BBE70B68266860691D1D0D60350641
:1075A0001B6801D5186002E07106FBD51880002326
:1075B00023611646BAE70B681A1D0A601E686268E6
:1075C0000021304600F034FB08B1801B6060636826
:1075D0002361002384F84330A8E7236932464946F3
:1075E0004046D0470130ABD023689B0713D4E068F6
:1075F000039B9842B8BF1846A4E701233246494688
:107600004046D04701309BD00135E36803995B1AAF
:10761000AB42F2DCEBE7002504F11906F5E700BF09
:10762000F58700000688000038B5064D00230446A3
:1076300008462B6000F080FC431C02D12B6803B18C
:10764000236038BD20100020034613F8012B002AC8
:10765000FBD1181A01387047F8B50E461446054696
:1076600018B183690BB900F0D9F9214B9C422BD199
:107670006C68A369A360A3891A072FD523696BB32C
:1076800023692068C01A6369F6B28342374604DC76
:107690002146284600F02EF930BBA368013BA360C9
:1076A00023685A1C22601E7063690130834204D033
:1076B000A389DB0706D50A2E04D12146284600F00F
:1076C00019F988B93846F8BD0A4B9C4201D1AC681B
:1076D000CFE7094B9C4208BFEC68CAE72146284621
:1076E00000F00CF80028CBD04FF0FF37EAE700BFDE
:1076F000388800005888000018880000324B70B5A8
:107700001D6806460C4625B1AB6913B9284600F042
:1077100085F92E4B9C420FD16C68A389B4F90C20DB
:1077200019072CD4DD0611D40923336042F040033D
:10773000A3814FF0FF303EE0254B9C4201D1AC6865
:10774000EBE7244B9C4208BFEC68E6E7580712D5EC
:10775000616B41B104F14403994202D03046FFF716
:10776000CBFB00236363A38923F02403A3810023BD
:10777000636023692360A38943F00803A38123691D
:107780004BB9A38903F42073B3F5007F03D02146DE
:10779000304600F007FAA089B4F90C2010F001037C
:1077A0000AD00023A36063695B42A361236943B9E4
:1077B00010F08000BAD170BD810758BF6369A36023
:1077C000F4E70020F7E700BF8C00002038880000B5
:1077D000588800001888000008B5062000F0ACFAB0
:1077E000012000F0BFFB00008A892DE9F041054629
:1077F00010070C4658D44B68002B05DC0B6C002B93
:1078000002DC0020BDE8F081E66A002EF9D00023FA
:1078100012F480522F682B6032D0606DA3895A0712
:1078200005D56368C01A636B0BB1236CC01A0023C3
:107830000246E66A216A2846B047431CA38906D15E
:1078400029681D292CD82A4ACA40D60728D50022E3
:107850006260D9042269226004D5421C01D12B68E0
:1078600003B96065616B2F600029CAD004F144033D
:10787000994202D02846FFF73FFB00206063C1E732
:10788000216A01232846B047411CC7D12B68002B31
:10789000C4D01D2B01D0162B01D12F60B1E7A389D5
:1078A00043F04003A381ADE70F69002FA9D09307F0
:1078B0000E6808BF4B690F6018BF0023A6EB0708CE
:1078C0008B60B8F1000F9CDD216AA66A43463A46F8
:1078D0002846B047002806DCA38943F04003A38173
:1078E0004FF0FF308EE70744A8EB0008E9E700BF40
:1078F0000100402038B50B6905460C4613B9002538
:10790000284638BD18B183690BB900F087F8144BCD
:107910009C421BD16C68B4F90C30002BEFD0626E26
:10792000D00704D4990502D4A06D00F015F92846BB
:107930002146FFF759FF636EDA070546E0D4A389B5
:107940009B05DDD4A06D00F008F9D9E7054B9C42FA
:1079500001D1AC68DFE7044B9C4208BFEC68DAE772
:10796000388800005888000018880000002310B5EF
:107970000446C0E90033C0E9043383608181436673
:10798000C2818361194608225C30FFF7ADFA054BCE
:107990006362054BA362054BE362054B24622363DC
:1079A00010BD00BF717D0000937D0000CB7D000005
:1079B000EF7D0000014900F0AFB800BFF57800008E
:1079C00070B54A1E682555430E4605F17401FFF750
:1079D000E3FA044640B10021C0E900160C30A06073
:1079E00005F16802FFF780FA204670BD014800F0FB
:1079F000B3B800BF1C100020014800F0AEB800BFB3
:107A00001C100020014800F0A7B800BF171000208C
:107A1000014800F0A2B800BF1710002010B50446BE
:107A2000FFF7F0FFA3691BB1BDE81040FFF7F0BFFF
:107A3000C4E912332365134B134A1B68A262A342A5
:107A400004BF0123A361204600F020F860602046B7
:107A500000F01CF8A060204600F018F80022E0605A
:107A600004216068FFF782FFA06801220921FFF767
:107A70007DFFE06802221221FFF778FF0123A36156
:107A8000D2E700BFE0870000B5790000F8B50746EF
:107A9000FFF7ACFF1E4B1E68B36913B93046FFF702
:107AA000BDFF4836D6E90134013B03D533680BB33B
:107AB0003668F7E7B4F90C50D5B9164BE36004F11A
:107AC0005800656600F047F8FFF796FFC4E90155D6
:107AD000C4E904552560A5610822294604F15C002B
:107AE000FFF702FAC4E90D55C4E912552046F8BD66
:107AF0006834D9E704213846FFF762FF0446306056
:107B00000028D5D1FFF778FF0C233B60EEE700BFDC
:107B1000E08700000100FFFF2DE9F8430646884694
:107B200000F148040027D4E90195B9F1010905D510
:107B30002468002CF7D13846BDE8F883AB89012BC7
:107B400007D9B5F90E30013303D029463046C04776
:107B500007436835E9E770477047704770B50E46D0
:107B6000B1F90E10002996B014461D4607DA00231D
:107B70002B60B3891A0610D44FF480630EE06A4676
:107B800000F05CF90028F2DB019A02F47042A2F5E1
:107B900000535A425A412A60EEE7402300202360F6
:107BA00016B070BD8B8973B59D0706460C4607D588
:107BB00004F14703236023610123636102B070BDB8
:107BC00001AB6A46FFF7CAFF009905463046FFF74A
:107BD000E3F948B9B4F90C309A05EFD423F0030364
:107BE00043F00203A381E3E70D4BB362A389206056
:107BF00043F08003A381009B6361019B20615BB123
:107C0000B4F90E10304600F02BF928B1A38923F007
:107C1000030343F00103A381A0890543A581CDE7B8
:107C2000B579000000000000000000000000000026
:107C300001F0FF01102A2BDB10F0070F08D010F81D
:107C4000013B013A8B422DD010F0070F42B3F6D121
:107C5000F0B441EA012141EA014122F007047FF03A
:107C600000070023F0E80256083C85EA010586EA91
:107C7000010685FA47F5A3FA87F586FA47F6A5FACD
:107C800087F68EB9EED1F0BC01F0FF0102F00702D9
:107C900032B110F8013B013A83EA010313B1F8D184
:107CA0000020704701387047002D06BF3546033865
:107CB000073815F0010F07D1013015F4807F02BF9E
:107CC000013015F4C03F0130F0BC0138704700BFEF
:107CD0000148FFF741BF00BF181000200148FFF71F
:107CE0003CBF00BF181000201F2938B504460D46C0
:107CF00004D9162303604FF0FF3038BD426C12B137
:107D000052F821304BB9204600F030F82A4601469F
:107D10002046BDE8384000F017B8012B0AD0591CA6
:107D200003D1162303600120E7E7002442F8254031
:107D3000284698470020E0E7024B01461868FFF705
:107D4000D3BF00BF8C00002038B5074D0023044688
:107D5000084611462B6000F0D7F8431C02D12B686F
:107D600003B1236038BD00BF2010002000F0BCB874
:107D700010B50C46B1F90E1000F094F80028ABBF16
:107D8000636DA3891B1823F48053ACBF6365A38183
:107D900010BD2DE9F0411F468B89DB0505460C46D9
:107DA000164605D5B1F90E100223002200F068F83E
:107DB000A389B4F90E1023F48053A38132463B46C5
:107DC0002846BDE8F04100F017B810B50C46B1F9EF
:107DD0000E1000F055F8431CA38915BF606523F40D
:107DE000805343F48053A38118BFA38110BDB1F920
:107DF0000E1000F013B8000038B5074D04460846D1
:107E0000114600222A601A4600F0A4F8431C02D151
:107E10002B6803B1236038BD2010002038B5064D13
:107E20000023044608462B6000F04EF8431C02D1A4
:107E30002B6803B1236038BD2010002038B5074DF2
:107E400000230446084611462B6000F045F8431C09
:107E500002D12B6803B1236038BD00BF2010002081
:107E600038B5064D0023044608462B6000F044F860
:107E7000431C02D12B6803B1236038BD20100020C1
:107E800038B5074D04460846114600222A601A46B6
:107E900000F042F8431C02D12B6803B1236038BDC7
:107EA0002010002038B5074D044608461146002230
:107EB0002A601A4600F038F8431C02D12B6803B13F
:107EC000236038BD20100020024B58221A604FF06A
:107ED000FF30704720100020024B58221A604FF0EC
:107EE000FF30704720100020024B58221A604FF0DC
:107EF000FF30704720100020024B58221A600020EB
:107F0000704700BF20100020024B58221A604FF02B
:107F1000FF30704720100020024B58221A604FF0AB
:107F2000FF30704720100020024B58221A604FF09B
:107F3000FF30704720100020044A05491368002BC9
:107F400008BF0B46184410601846704710100020F8
:107F500024100020024B58221A604FF0FF30704767
:107F600020100020FEE700BFF8B500BFF8BC08BC39
:107F70009E467047F8B500BFF8BC08BC9E467047E7
:107F800043414E2042555320536869656C64206913
:107F90006E6974206661696C0020496E69742043C3
:107FA000414E2042555320536869656C64206167D7
:107FB00061696E0043414E20425553205368696504
:107FC0006C6420696E6974206F6B21000B000000E7
:107FD0000A0000000900000008000000170000006F
:107FE000160000000100000000000000100000006A
:107FF0000F0000000E0000000C0000001100000047
:108000000600000005000000040000006366670031
:10801000453A5C44726F70626F785C4C47495F50C0
:10802000726F647563745C50524F4A454354334BCE
:10803000325C4541474C455F46494C455F4E50498F
:108040005C31352D43414E426564204D345C736B89
:10805000657463685F73616D6535315C6C6962720C
:1080600061726965735C53414D4535315F43414EE3
:108070005C7372635C6D63616E2E630073697A6515
:10808000002872656756616C333220262043414ECA
:108090005F434343525F494E495429203D3D2043AD
:1080A000414E5F434343525F494E495400736574E8
:1080B000006366672D3E72656773006366672D3ED9
:1080C0006D73675F72616D006275665F69647820C9
:1080D0003C207365742D3E6366672E617272617910
:1080E0005F73697A655F7478006C656E203C3D2033
:1080F0007365742D3E6366672E6275665F73697A79
:10810000655F7478006275665F696478203C2073EF
:1081100065742D3E6366672E61727261795F736963
:108120007A655F727800696420262043414E5F457E
:1081300058545F4D53475F4944203F2066696C7433
:108140006572203C207365742D3E6366672E6172F4
:108150007261795F73697A655F66696C745F65786F
:1081600074203A2066696C746572203C20736574D3
:108170002D3E6366672E61727261795F73697A65FD
:108180005F66696C745F73746400696420262043C1
:10819000414E5F4558545F4D53475F4944203F204F
:1081A0002869642026207E43414E5F4558545F4D28
:1081B00053475F494429203C3D203078316666664C
:1081C00066666666203A206964203C3D2030783738
:1081D0006666006669666F203D3D2030207C7C200D
:1081E0006669666F203D3D2031006964202620438A
:1081F000414E5F4558545F4D53475F4944203F20EF
:108200006D61736B203C3D20307831666666666632
:108210006666203A206D61736B203C3D20307837D4
:108220006666006D63616E5F636F6E666967757227
:10823000655F6D73675F72616D006D63616E5F692D
:108240006E697469616C697A65006D63616E5F72F5
:1082500065636F6E666967757265006D63616E5FF9
:10826000656E71756575655F6F7574676F696E674B
:108270005F6D7367006D63616E5F66696C746572D4
:108280005F69645F6D61736B0052414D20636F6E77
:1082900066696775726174696F6E20737563636573
:1082A000656465640043414E20696E697469616C60
:1082B000697A65640043414E20696E697420666185
:1082C000696C65642C20636F646520004D43414EEA
:1082D00020697320656E61626C65642100536F6D67
:1082E000657468696E672077656E742077726F6E4B
:1082F000672121212121212121000000000000000F
:10830000100000000300000000010000FF00000159
:108310000005000000000000110000000300000044
:1083200000010000FF000101010501000000000044
:1083300007000000010000000A000000070001041F
:108340000104070000000000160000000E000000FD
:1083500000020000FF000200FFFF06000000000016
:108360000E0000000E00000000010000FF000002EF
:1083700000060E00000000000F0000000E000000CC
:1083800000010000FF00010201060F0001000000D3
:108390000200000001000000020000000E00FFFFCC
:1083A000FFFF020000000000120000000E000000AD
:1083B00000010000FF0002010006020001000000B1
:1083C0000300000001000000020000000F00FFFF9A
:1083D000FFFF030000000000130000000E0000007B
:1083E00000010000FF00030101060300000000007F
:1083F000140000000E00000000020000FF0000005A
:10840000FFFF040000000000150000000E00000047
:1084100000020000FF000100FFFF05000000000057
:10842000120000000E00000000010000FF00020129
:10843000000602000000000007000000010000002C
:108440000A0000000700010401040700000000000A
:108450000200000001000000020000000000FFFF19
:10846000FFFF020000000000050000000100000006
:10847000020000000500FFFFFFFF050000000000F4
:108480000800000001000000020000000800FFFFDB
:10849000FFFF1000000000000900000001000000C4
:1084A000020000000900FFFFFFFF090000000000BC
:1084B00004000000010000000A00000004000003A6
:1084C000000304000000000006000000010000009E
:1084D0000A0000000600000400040600000000007E
:1084E00007000000010000000A000000070001046E
:1084F00001040700000000000C0000000200000062
:1085000004000000FF00FFFF00050C000000000059
:108510000D0000000200000004000000FF00FFFF4B
:1085200001050D000100000017000000020000001E
:1085300004000000FF00FFFFFFFF07000000000035
:10854000010000000300000008000000FF0001051A
:108550000105010000000000000000000300000011
:1085600008000000FF0000050005000000000000FA
:108570001B0000000700000000000000FF00FFFFDC
:10858000FFFF0B00000000001800000007000000C3
:1085900000000000FF00FFFFFFFF080000000000D8
:1085A000190000000700000000000000FF00FFFFAE
:1085B000FFFF0900000000000300000001000000B0
:1085C00002000000FF00FFFFFFFF030000000000AB
:1085D0000200000001000000020000001400FFFF84
:1085E000FFFF020000000000050000000100000085
:1085F000020000001500FFFFFFFF05000100000062
:108600000A0000000700000000000000FF00FFFF5C
:10861000FFFF0A00010000000B000000070000003F
:1086200000000000FF00FFFFFFFF0B000000000044
:10863000080000000700000000000000FF00FFFF2E
:10864000FFFF10000000000009000000070000000C
:1086500000000000FF00FFFFFFFF09000000000016
:108660000A0000000700000000000000FF00FFFFFC
:10867000FFFF0A00000000000B00000007000000E0
:1086800000000000FF00FFFFFFFF0B000D0A0000CD
:108690000030004007032E002F00300031000000A2
:1086A000003400400803320033003400350000007D
:1086B0000020014117033600370038003900000060
:1086C0000040014118033A003B003C003D0000001F
:1086D0000000004322033E003F0040004100000034
:1086E000000400432303420043004400450000000F
:1086F000000000000000000095560000BD5600007C
:1087000091560000B5560000AD560000015700001C
:10871000E55600000000000000000000AF5A000015
:108720009F590000FF580000D1570000F557000086
:108730000958000043414E426564204D34202853BF
:10874000414D4535314731394129000004030904C1
:108750004C6F6E67616E2D4C6162730012010002F6
:10876000EF020140EB032B80000101020301000036
:1087700000000000000000003969000039520000CC
:10878000696800001768000033680000E5690000B0
:108790004366000039660000B56600005D660000B3
:1087A000356600002C2066756E6374696F6E3A2022
:1087B00000617373657274696F6E202225732220C5
:1087C0006661696C65643A2066696C652022257370
:1087D000222C206C696E65202564257325730A00A0
:1087E00090000020232D302B2000686C4C00656623
:1087F00067454647003031323334353637383941F2
:108800004243444546003031323334353637383907
:108810006162636465660000000000000000000003
:108820000000000000000000000000000000000048
:108830000000000000000000000000000000000038
:108840000000000000000000000000000000000028
:108850000000000000000000000000000000000018
:108860000000000000000000000000000000000008
:0C887000000000000000000000000000FC
:10887C0055555555AAAAAAAAFFFFFFFFFFFFFFFFF8
:10888C0000C2010000000800080B000202020000F8
:10889C000904000001020200000524001001042458
:1088AC0002060524060001052401010107058103C8
:1088BC0010001009040100020A0000000705020262
:1088CC00400000070583024000000000FFFFFFFF8F
:1088DC000000000083000000020000008200000085
:1088EC00000000000000000000000000000000007C
:1088FC000000000000000000000E27079000002080
:10890C00000000003888000058880000188800001B
:10891C00000000000000000000000000000000004B
:10892C00000000000000000000000000000000003B
:10893C00000000000000000000000000000000002B
:10894C00000000000000000000000000000000001B
:10895C00000000000000000000000000000000000B
:10896C008942000089440000654D0000AD570000AD
:10897C0025660000654200000000000000000000B9
:0400000300004DF5B7
:00000001FF
